:020000040800F2
:10000000B005002005010008472700083D2300082F
:10001000452700085B090008C92B00080000000004
:100020000000000000000000000000004B27000856
:10003000B50A0008000000004927000879270008D9
:100040001F0100081F0100081F0100081F01000810
:100050001F0100081F0100081F0100081F01000800
:100060001F0100081F0100081F0100081F010008F0
:100070001F0100081F0100081F0100081F010008E0
:100080001F0100081F0100081F0100081F010008D0
:100090001F0100081F0100081F0100081F010008C0
:1000A0001F0100081F0100081F010008DD270008CC
:1000B000E92700081F0100081F0100081F010008B0
:1000C0001F0100081F0100081F0100081F01000890
:1000D0001F010008BD2B00081F0100081F010008B8
:1000E0001F0100081F0100081F010008DFF810D0E1
:1000F00000F09EFB004800475D360008AFF300802B
:10010000B00500200648804706480047FEE7FEE7A6
:10011000FEE7FEE7FEE7FEE7FEE7FEE7FEE7FEE7B7
:10012000DB270008ED000008202A04DB203A21FA32
:1001300002F00021704721FA02F3D040C2F1200200
:100140009140084319467047D2B201E000F8012BF4
:10015000491EFBD270470022F6E710B513460A4647
:1001600004461946FFF7F0FF204610BD70B50F4D4D
:1001700000B92868002412E00A4602E09E4203D03B
:10018000521C1378002BF9D1DAB2224305D02BB1DF
:1001900024B1002100F8011B04E00446401C06784D
:1001A000002EE9D12860204670BD000054000020D8
:1001B00070B5064602F03EFD046805460A2200219D
:1001C000304600F091F92C6070BD2DE9FE4F81EAB8
:1001D000030404F0004421F0004100944FF0000BB0
:1001E00023F0004350EA01045ED052EA03045BD0DE
:1001F000C3F30A54C1F30A552C44A4F2F334019416
:10020000A0FB0254C1F3130141F48011C3F31303A3
:1002100043F4801301FB024400FB034E840A970A57
:1002200044EA815447EA8357A4FB076802958D0A84
:1002300005FB07854FEA932C04FB0C542705029D10
:100240004FEA065847EA1637B5EB08056EEB070C80
:10025000870E920E47EA811742EA8312A7FB02013A
:10026000B6EB0B0164EB00042B0D43EA0C335E1874
:1002700044EB1C50DA465146E7FB0201C5F3130478
:100280004FEA0B3343EA14534FEA0432019C43EA2A
:100290000603A4F10C040294009CCDE900B400F024
:1002A000A1F903B0BDE8F08F00200146F9E72DE980
:1002B000F04D81EA030404F0004B21F000451446A0
:1002C0004FF0000A23F0004150EA050220D054EA22
:1002D00001021DD0C5F30A570246C5F31303C1F34B
:1002E0001300C1F30A5640F4801543F48013A7EBC2
:1002F0000608101BD64608F2FD3873EB050002D342
:1003000008F1010801E092185B41B8F1000F03DA2F
:1003100000200146BDE8F08D00204FF48011064614
:1003200084460EE0171B73EB050705D3121B63EB26
:10033000050306434CEA010C49084FEA30009218C5
:100340005B4150EA0107EDD152EA030012D082EA84
:10035000040083EA0501084305D0101BAB4106D217
:100360000122002306E000224FF0004302E06FF07C
:10037000010253101AEB06004CEB085110EB0A0077
:1003800041EB0B01BDE8F04D00F01DB970B521F057
:10039000004303430CD0C1F30A550024D5EB0405F8
:1003A00064EB0403D617AD1AB34102DB002001460B
:1003B00070BD201841EB025170BD0EB540F23341C3
:1003C00002910021CDE900110A460B4600F00AF91E
:1003D00003B000BD20F00040C10DC0F3160040F492
:1003E00000007F2901DA00207047962903DCC1F163
:1003F0009601C840704796398840704700F0004227
:1004000030F000400AD0C10D01F56071C0F3160054
:1004100042EA0151C20840071143704700200146DB
:10042000704701F0004330B421F0004150EA01026E
:1004300006D00A0DA2F56072C1F31301002A02DC96
:1004400030BC00207047440F44EAC104C100E018EA
:1004500030BC00EBC25000F07FB830B50B4601460F
:1004600000202022012409E021FA02F59D4205D353
:1004700003FA02F5491B04FA02F52844151EA2F1FD
:100480000102F1DC30BD2DE9F05F05460020924607
:100490009B4688460646814640241BE02846414646
:1004A00047462246FFF740FE53465A46C01A91413E
:1004B00010D311461846224600F0CCF92D1A67EBEE
:1004C00001084F4622460120002100F0C3F917EB36
:1004D00000094E41201EA4F10104DFDC48463146EC
:1004E0002A464346BDE8F09F2DE9F04791460F4666
:1004F00080460446002614F8015B2DB100F0CCF9CB
:100500000068405DC007F6D12B2D02D02D2D18D0EC
:10051000641E4A463946204600F0C2F927B13968C0
:10052000A14201D1C7F8008071054FF002040BD53C
:100530004042002803DD02F07DFB0460A007BDE817
:10054000F08746F48066E4E70028F8DA02F072FBF0
:1005500004606FF00040F2E70029A8BF7047401C1C
:10056000490008BF20F00100704710B4B0FA80FCC9
:1005700000FA0CF050EA010404BF10BC704749B106
:10058000CCF1200421FA04F411FA0CF118BF012176
:1005900021430843A3EB0C01CB1D4FEA00614FEA56
:1005A000102042BF002010BC704700EBC350104425
:1005B0000029A4BF10BC7047401C490008BF20F0B0
:1005C000010010BC704710B5141E73F1000408DA66
:1005D000401C41F1000192185B411A4301D120F007
:1005E000010010BD2DE9F04D92469B4611B1B1FAC4
:1005F00081F202E0B0FA80F22032904600F02AF94F
:1006000004460F4640EA0A0041EA0B0153465A46A7
:10061000084313D0114653EA010019D0C8F1400233
:100620005046FFF781FD05460E4650465946424664
:1006300000F010F9084305D0012004E020463946B7
:10064000BDE8F08D0020054346EAE0762C433743B1
:100650000A986305E40AA0EB08000022FD0A44EAB8
:1006600047540A3002D500200146E9E70105101978
:100670006941DDE9084500196941BDE8F04DA2E78F
:100680002DE9FE4F804681EA0300C00F0C46009022
:1006900021F0004123F00045B8EB0200A94105D24A
:1006A0004046214690461C460B46024623F0004039
:1006B000104347D0270DC7F30A00C3F30A51029035
:1006C000401A019040286BDAC3F3130040F4801BFA
:1006D0000098924620B10023D2EB030A63EB0B0B88
:1006E00001985946C0F14002504600F0B3F8064662
:1006F0000D4650465946019A00F0BBF810EB080031
:100700006141002487EA115284EAE7731A4340D01A
:10071000009A62B3019A012A4FEA075215DC001BC6
:1007200061EB02014FF0004202EA0752CDE90042BC
:10073000001C41F5801132462B46FFF753FF03B0F2
:10074000BDE8F08F40462146F9E7001B61EB02014E
:10075000001C41F5801300185B412018A2F500171A
:1007600047EB030140EAD570B6196D4111E06D0801
:100770004FEA360645EAC0754FEA0752001B61EBA7
:100780000201001C41F5801149084FEA30000019B0
:10079000514132462B4603B0BDE8F04FFFF713BF7F
:1007A0000098012240000023D0EB020263EBE073CB
:1007B000009821464FEAE074B8EB000061EB0401B9
:1007C000E9E783F000435BE781F0004158E7C1F3BC
:1007D0000A52C1F3130140F2FF3341F480119A42EF
:1007E00002DA00200146704740F233439A42A2F2F7
:1007F000334202DC5242FFF797BC00F02BB80000F6
:1008000030B5041E71F1000404DB4FF00044404297
:1008100064EB0101141E73F1000405DB1C464FF06C
:100820000043524263EB0403994208BF904230BD3B
:10083000064C074D06E0E06840F0010394E807002D
:1008400098471034AC42F6D3FFF754FC3C3900080B
:100850005C390008202A04DB203A00FA02F100206B
:1008600070479140C2F1200320FA03F319439040EE
:100870007047202A06DBCB17203A41FA02F043EA00
:10088000E07306E041FA02F3D040C2F12002914049
:10089000084319467047000000487047383900087F
:1008A0002DE9F05F82460078002715468B460AF155
:1008B0000104B946302801D09DB113E014F8010BB2
:1008C0000127782803D0582801D045B10AE00DB19E
:1008D000102D07D10027102514F8010B02E0082580
:1008E00000E00A250026B0460EE005FB080005FBE7
:1008F00006F1012701EB10461FFA80F8B6F5803F9C
:1009000000D3B94614F8010B294600F018F8002866
:10091000EBDABBF1000F05D00FB1641E00E05446C6
:10092000CBF80040B9F1000F06D002F083F90221A4
:100930000160C81EBDE8F09F48EA0640FAE73A2881
:1009400000D2303820F02002412A01D3A2F1370032
:10095000884201D34FF0FF307047FEE770B50024A6
:10096000282002F0D1FD0C4D0221284600F014FA97
:1009700050B9502002F0C8FD0221284600F00CFAC0
:1009800008B1012400E0FF240221284600F004FA07
:100990000028F9D1204670BD000801402DE9F04142
:1009A0000024144F01260221384600F0F5F90028F2
:1009B000F9D0282002F0A8FD0221384600F0ECF919
:1009C00090B1C4F1070106FA01F02843C5B2022133
:1009D000384600F0E1F90028F9D1641CE4B2082C93
:1009E000E1D32846BDE8F081C4F1070006FA00F023
:1009F0008543ECE7000801402DE9F041054600F091
:100A000039F8FFF7ABFF194C2070FFF7C7FF607094
:100A1000FFF7C4FFA070FFF7C1FFE070FFF7BEFF54
:100A20002071FFF7BBFFE0802079E17840EA0120E8
:100A30006081A178627841EA02262681FFF7BDFC39
:100A40000B4F00223B46FFF732FCFFF7EAFC04465F
:100A50003046FFF7B2FC00223B46FFF728FCFFF7C9
:100A6000E0FCC5E90040BDE8F08100003000002056
:100A70000000244010B50E4C0221204601F070FE0B
:100A800000220221204600F08CF94FF4966002F01B
:100A90003BFD01220221204600F083F9142002F0E0
:100AA00033FD2046BDE81040022101F04FBE00009A
:100AB00000080140704710B590F82110002202296B
:100AC00005D00421816380F82020012010BD016839
:100AD0000B6823F00E030B6001680B6823F0010321
:100AE0000B6090F84030C46B012101FA03F363609E
:100AF00080F8211080F82020104610BD10B590F825
:100B000021100024022903D00421816301243DE047
:100B100001680A6822F00E020A6001680A6822F081
:100B200001020A601A4A0168914201D1012121E0C3
:100B3000174A1432914201D110211BE0144A283285
:100B4000914201D1891515E0114A3C32914201D1FF
:100B500089140FE00E4A5032914202D14FF4803195
:100B600008E00B4A6432914202D14FF4801101E057
:100B70004FF08071064A083A5160012180F8211037
:100B8000002180F82010416B01B18847204610BD3C
:100B90000800024070B5044600F008F90546601CE4
:100BA00002D004480078044400F000F9401BA04241
:100BB000FAD370BD200000202DE9F84FDFF8B8917E
:100BC000002409F1040A0AF1040B23460F270BF154
:100BD000040EC9E00125A5402A40AA427DD1674EF6
:100BE000D1F804C0ACEB0608B44532D014DCBCF13B
:100BF000030F3AD009DCBCF1000F2AD0BCF1010F81
:100C00001CD0BCF1020F31D11DE0BCF1110F17D087
:100C1000BCF1120F2AD119E0B8F5881F19D006DCF3
:100C2000B8F5803F15D0B8F5801F1FD111E0B8F599
:100C3000001F0ED0B8F5041F18D10AE0CB6815E0EC
:100C4000CB681B1D12E0CB6808330FE0CB680C3378
:100C50000CE08B682BB1012B4FF0080303D04561EA
:100C600004E0042302E0056100E00023FF2A01D82C
:100C7000064601E000F104064FEA840501D9A5F11A
:100C80002005D6F8008007FA05FC28EA0C0803FACC
:100C900005F548EA0508C6F800804D68ED0062D504
:100CA000374DAE6946F00106AE61AD6924F003062A
:100CB00005F001050095334D06EB050CDCF80850F6
:100CC000A607360F07FA06F825EA0805DFF8B88008
:100CD000404503D14FF0000817E044E0DFF8AC8056
:100CE000404502D14FF001080FE0DFF8A4804045F5
:100CF00002D14FF0020808E0DFF89880404502D1A9
:100D00004FF0030801E04FF0040808FA06F848EA3B
:100D10000508CCF808804D68D9F80060ED034D4611
:100D200001D5164300E096432E604D68DAF8006066
:100D3000AD03554601D5164300E096432E604D683D
:100D4000DBF80060ED025D4601D5164300E09643F6
:100D50002E604D68DEF80060AD02754601D5164381
:100D600000E096432E60641C0D682A46E5407FF43F
:100D700031AFBDE8F88F0000000401400000111001
:100D8000001002400000014000080140000C01403A
:100D900000100140001401408068084000D001208C
:100DA00070470AB1016170470904FBE70148806898
:100DB000704700002000002070B5040025D094F892
:100DC0003D00002520B984F83C50204600F04EF943
:100DD000242084F83D002068016821F001010160B1
:100DE0002068016841F4004101602068016821F435
:100DF0000041016000F096FA4D4A6168914201D8C5
:100E00004C4900E04C49884201D2012070BD4B4959
:100E10002368B0FBF1F15E6826F03F060E435E608A
:100E20006368934206D94FF4967359434FF47A732B
:100E3000B1FBF3F12368491C1E6A26F03F063143DB
:100E400019626168914210D84900401EB0FBF1F26E
:100E5000521CC2F30B02042A01D2042022E0B0FB90
:100E6000F1F0401CC0F30B001CE0A268F2B301EBF0
:100E7000C10303EB0116431EB3FBF6F35B1C43F403
:100E800080431B0549D092B301EBC10202EB011173
:100E9000401EB0FBF1F0401CC0F30B0040F480405A
:100EA00040F400402168CA694CF6FF739A4310432E
:100EB000C861D4E9071001432068026822F0C0022B
:100EC00011430160D4E9030101432068826848F2BC
:100ED000FF339A4311438160D4E905010843216837
:100EE000CA6822F0FF021043C86001E00EE016E07D
:100EF0002068016841F0010101602564202084F828
:100F00003D00256384F83E50002070BD01EB410692
:100F1000431EB3FBF6F35B1CB3E70120C2E701EB12
:100F20004101401EB0FBF1F0401CC0F30B00B7E7DD
:100F3000A086010080841E0000093D0040420F0091
:100F40002DE9F84F1F4690468A460446DDF8289062
:100F5000FFF72CFF054694F83D0020287FD1192388
:100F6000012240492046009501F074FA002876D10C
:100F700094F83C00012872D0012084F83C002068DD
:100F80000168C90703D1016841F0010101602068CF
:100F9000016821F400610160212084F83D001020E7
:100FA00084F83E0000262664C4F824806785608D9E
:100FB00020852D48E0622B464A465146204601F0E6
:100FC000D5F990B9206841698069009036E02A46D9
:100FD0004946204601F0BDFA50B1206C042804D1E6
:100FE0002068016841F4007101600120BDE8F88FBC
:100FF000606A216800780861606A401C6062618DE7
:10100000491E6185218D491E89B221852268536957
:10101000DB435B070BD451B100781061606A401C60
:101020006062608D401E6085208D401E20852A46AE
:101030004946204601F0E8F90028CED1208D00284D
:10104000C5D154F83D0B016841F4007101602020C6
:1010500004F81E09E67766770020C7E7FFE702205D
:10106000C4E70000020010000000FFFF10B586B0CA
:101070000021009101910291039100680F4988427B
:101080001AD10F4CA06940F00800A061A069694620
:1010900000F008000490C02000901220019003206E
:1010A00003900848FFF788FDE06940F40010E06114
:1010B000E06900F40010049006B010BD0054004038
:1010C00000100240000C014002488168027811447F
:1010D0008160704720000020074810B5016841F08A
:1010E00010010160032000F075F8002000F006F800
:1010F00000F024F8002010BD0020024070B50D4D16
:1011000004464FF47A712878B1FBF0F00A49096877
:10111000B1FBF0F000F0ECFA48B9102C07D2002235
:101120002146501E00F036F800206C6070BD012092
:1011300070BD0000200000202C0000200C4808B5E5
:10114000816941F001018161816901F00101009132
:10115000C16941F08051C161C06900F080500090C8
:101160000448416821F0E06141F00071416008BD30
:101170000010024000000140002809DB00F01F02BF
:10118000012191404009800000F1E020C0F80011E9
:1011900070470000F0B40E4B1B680C46C3F30223EB
:1011A000C3F10705042D00D90425191D072901D213
:1011B000002300E0DB1E012606FA05F1491E21404E
:1011C00099409E40761E16403143F0BC01F022BD8E
:1011D0000CED00E0064900F0070208684FF6FF0337
:1011E000184040EA0220034A10430860704700009C
:1011F0000CED00E00000FA052DE9F0470F46050070
:1012000061D0434E306800F00700B84209D2306820
:1012100020F0070038433060306800F00700B84223
:1012200051D128683B4C810712D5400703D560682F
:1012300040F4E06060602878000703D5606840F4FF
:10124000605060606068A96820F0F000084360604A
:101250002878C00728D06868012810D021680228A3
:1012600010D0890700292EDA616821F003010143BB
:101270006160FFF79BFD804641F288390DE02168EF
:101280008903EFE78901EDE7FFF790FDA0EB080187
:10129000494502D90320BDE8F0876068696800F01D
:1012A0000C00B0EB810FEFD1306800F00700B842BE
:1012B0000BD9306820F0070038433060306800F008
:1012C0000700B84201D00120E5E72878400705D59E
:1012D0006068E96820F4E0600843606028780007EF
:1012E00006D56068296920F4605040EAC10060605A
:1012F00000F038F86168084AC1F30311515CC84036
:101300000649086006480068FFF7F8FE0020C2E7BB
:1013100000200240001002409E3800082C000020EF
:10132000240000200448054900684968044AC1F3C4
:101330000221515CC84070472C0000200010024080
:10134000AE3800080448054900684968044AC1F3FA
:10135000C221515CC84070472C00002000100240A0
:10136000AE38000812A185B00FC98DE80F0014A097
:10137000144A006804905168134801F00C03042BD0
:1013800010D0082B0ED1C1F38343C9031DF803000D
:101390000AD5516804AAC1F34041515C0A4A50433E
:1013A000B0FBF1F005B0704708494843FAE7000088
:1013B00002030405060708090A0B0C0D0E0F101096
:1013C000010200000010024000127A0000093D00F6
:1013D0002DE9F84F040070D02078C04DC00749D0E7
:1013E0006868C0F38100012807D06868C0F38100F5
:1013F000022809D16868C00306D52868800339D55A
:1014000060680028E7D035E06068B0F5803F0BD019
:1014100010B1B0F5A02F11D0286820F480302860DA
:10142000286820F4802002E0286840F4803028609A
:10143000606890B1FFF7BAFC06460AE0286840F4FD
:1014400080202860F0E700BFFFF7B0FC801B642815
:1014500073D828688003F7D50CE0FFF7A7FC064691
:1014600005E000BFFFF7A2FC801B6428F0D82868C5
:101470008003F7D420789A4E80074FF001094FF08F
:10148000000839D5686810F00C0F07D06868C0F301
:101490008100022809D16868C00306D42868800743
:1014A00014D52069012808D110E02069B0B1C6F830
:1014B0000090FFF77BFC074605E00AE1FFF776FCAA
:1014C000C01B0228C4D828688007F7D5286861693E
:1014D00020F0F80040EAC10028600DE0C6F8008066
:1014E000FFF764FC074604E0FFF760FCC01B02281E
:1014F00023D828688007F7D4207800072CD57948AE
:10150000A169D9B1C0F80090FFF750FC074604E08C
:10151000FFF74CFCC01B02280FD8686A8007F7D57C
:1015200071484FF4FA510068B0FBF1F0009000BF31
:101530000098411E0091FAD20EE080E0C0F80080D1
:10154000FFF734FC074604E0FFF730FCC01B02281D
:1015500075D8686A8007F7D42078400760D5E869B5
:101560000027C00008D4E86940F08050E861E869CD
:10157000012700F0805000905C480168C90513D431
:101580000168834641F480710160FFF70FFC8246D9
:1015900006E000BFFFF70AFCA0EB0A0064284ED863
:1015A000DBF80000C005F5D5E06801280AD008B1D5
:1015B000052813D0286A20F001002862286A20F04C
:1015C000040002E0286A40F001002862E06841F26D
:1015D000883B98B1FFF7EAFB82460BE0286A40F0AF
:1015E00004002862EEE700BFFFF7E0FBA0EB0A0172
:1015F00059455AD8286A8007F6D50CE0FFF7D6FB84
:10160000824605E0FFF7D2FBA0EB0A0159454CD812
:10161000286A8007F6D41FB1E86920F08050E8619D
:10162000E06988B36968C1F38101022944D00228C6
:10163000C6F8608004D0FFF7B9FB044638E034E018
:10164000FFF7B4FB074604E0FFF7B0FBC01B02281E
:101650002BD828688001F7D4206AB0F5803F05D1E7
:101660006868A16820F4003008436860D4E9080184
:101670000843696821F4741108436860C6F86090F3
:10168000FFF794FB044606E025E000BFFFF78EFB62
:10169000001B022809D828688001F7D51BE000BF8D
:1016A000FFF784FB001B022802D90320BDE8F88F56
:1016B00028688001F4D40EE00128F7D06868226A17
:1016C00000F48031914204D1616A00F470108842C4
:1016D00001D00120EAE70020E8E700000010024006
:1016E00000004242800442422C0000200070004072
:1016F00010B5401EB0F1807F01D3012010BD4FF026
:10170000E02460610F21601701F084FA0020A061DD
:1017100007202061002010BD7047704770B590F819
:101720003C20012A26D0012480F83C40022280F887
:101730003D2003685A689D6822F070060A683243AB
:101740005A600D4B02689A4208D0B2F1804F05D022
:101750000A4B9A4202D00A4B9A4204D1496825F0BA
:1017600080031943916080F83D40002180F83C10CF
:10177000084670BD022070BD002C014000040040EE
:101780000008004010B5040003D094F83D0010B1EB
:1017900007E0012010BD002084F83C00204600F046
:1017A0001FF8022084F83D00211D206801F022F876
:1017B000012084F8460084F83E0084F83F0084F855
:1017C000400084F8410084F8420084F8430084F823
:1017D000440084F8450084F83D00002010BD00005E
:1017E00008B50068B0F1804F12D10A48C16941F0D4
:1017F0000101C161C069002200F0010000900121D7
:101800001C20FFF7C7FCBDE808401C20FFF7B4BC54
:1018100008BD00000010024090F83D10012901D0E1
:1018200001207047022180F83D1000680B49884272
:1018300008D0B0F1804F05D00949884202D009494B
:10184000884204D1816801F00701062903D00168AC
:1018500041F001010160002070470000002C0140B0
:10186000000400400008004090F83D10012901D01C
:1018700001207047022180F83D100168CA6842F0DB
:101880000102CA6000680B49884208D0B0F1804F5D
:1018900005D00949884202D00849884204D18168AC
:1018A00001F00701062903D0016841F00101016040
:1018B00000207047002C0140000400400008004058
:1018C00070B5044690F83C00012817D0012584F833
:1018D0003C50022084F83D002068826822F07702A4
:1018E00022F47F4282600868502830D00DDC202826
:1018F0004DD005DC98B310283BD148E0022070BDE4
:10190000302844D0402834D139E0602828D07028CD
:1019100006D0B0F5805F2CD0B0F5005F29D10AE089
:10192000CB68D1E90121206800F0A7FF2068816819
:1019300041F0770109E0CB68D1E90121206800F08E
:101940009CFF2068816841F48041816011E0CA6891
:101950004968206800F0A3FF5021206807E016E0E6
:10196000CA684968206800F0D7FF6021206800F04D
:101970008EFF84F83D50002084F83C0070BDCA689A
:101980004968206800F08BFF40212068EFE722685B
:1019900001461046EBE7000070B50546007F0128C0
:1019A0004BD1264C207810B1012812D043E0002101
:1019B000284600F07BFA6060012020702868016AE8
:1019C00021F00A0101622868016A41F00201016206
:1019D00031E00021284600F069FAA060296800265D
:1019E0004E626168884201D9401A07E0814201D8FD
:1019F000E06804E04FF6FF72511A0844E060FEF719
:101A0000DCFC0F4A0F4BFEF7E0FB4FF0FF32FEF716
:101A1000BDFCFEF706FD206126702868016A21F0F2
:101A20000A0101622868016A016207480068C1680A
:101A300021F00201C1602069606170BD3C0000209E
:101A40009CC420B07268A13FB40000202DE9F04191
:101A5000054690F83C000C46012836D0012085F858
:101A60003C008AB3042A42D02868082A51D0D4E91D
:101A70000023E168066A26F480560662C669076A92
:101A800026F4407646EA03234FF6FF7606EA013154
:101A900023F4704319434FF4005627F4005306EA29
:101AA00002321A43C16102622868C16921F44061AF
:101AB000C1612868C169A26841EA0221C1610020B0
:101AC00085F83C00BDE8F08101E00220FAE7D4E9A6
:101AD0000012E368286800F0F3FE2868816921F0AD
:101AE0000C01816128688169A26811430FE0D4E983
:101AF0000012E368286800F021FF2868816921F45A
:101B00004061816128688169A26841EA022181619E
:101B1000D5E7D4E90027267B016A21F480710162B0
:101B2000C169036A21F00301394321F0F00731074D
:101B30004FF4007647EA116123F4007306EA0222AB
:101B40001A43C16102622868C16921F00C01C161B8
:101B50002868C169A2681143B0E710B5040003D03A
:101B600094F83D0010B107E0012010BD002084F87A
:101B70003C00204600F01EF8022084F83D00211DA4
:101B8000206800F037FE012084F8460084F83E000B
:101B900084F83F0084F8400084F8410084F8420053
:101BA00084F8430084F8440084F8450084F83D003C
:101BB000002010BD00B585B0002100910191029177
:101BC00003910068124988421FD11248816941F48B
:101BD00000618161816901F400610491816941F0D2
:101BE000040181618069694600F0040004904FF4AB
:101BF000807000900848FEF7DFFF002202211B20C2
:101C0000FFF7C8FA1B20FFF7B7FA05B000BD0000C8
:101C1000002C0140001002400008014010B50446AD
:101C200051B104290DD0082910D094F8410094F83E
:101C30004520012811D10EE094F83E0094F842208E
:101C4000F7E794F83F0094F84320F2E794F8400057
:101C500094F84420EDE7012A01D0012010BD0220B4
:101C600051B1042911D0082918D084F8410084F812
:101C700045000C291BD136E084F83E0084F8420070
:101C80002068C26842F0020210E084F83F0084F845
:101C900043002068C26842F0040207E084F8400074
:101CA00084F844002068C26842F00802C260012241
:101CB000206800F0D5FD0E492068884208D0B0F1B8
:101CC000804F05D00B49884202D00B49884204D18D
:101CD000816801F00701062903D0016841F0010184
:101CE0000160002010BD2068C26842F01002DDE7EC
:101CF000002C0140000400400008004070B504467C
:101D0000006801694FF00005C943890715D4C1680F
:101D1000C943890711D4E91E016101202077206899
:101D200080698007204602D0FFF736FE04E000F00D
:101D300098F8204600F096F8257720680169C94395
:101D4000490717D4C168C943490713D46FF0040188
:101D50000161022020772068806910F4407F2046CE
:101D600002D0FFF719FE04E000F07BF8204600F0F7
:101D700079F8257720680169C943090716D4C16835
:101D8000C943090712D46FF00801016104202077CC
:101D90002068C0698007204602D0FFF7FDFD04E0FF
:101DA00000F05FF8204600F05DF8257720680169B3
:101DB000C943C90617D4C168C943C90613D46FF013
:101DC00010010161082020772068C06910F4407F6D
:101DD000204602D0FFF7E0FD04E000F042F8204684
:101DE00000F040F8257720680169C943C90708D188
:101DF000C168C943C90704D1891E0161204600F0AA
:101E000033F820680169C943090609D4C168C94388
:101E1000090605D46FF0800101612046FFF77CFCC4
:101E200020680169C943490609D4C168C943490604
:101E300005D46FF040010161204600F04CF82068A5
:101E40000169C94389060BD4C168C943890607D40F
:101E50006FF0200101612046BDE87040FFF75DBCD6
:101E600070BD70477047000070B500684FF0804546
:101E7000A84217D10C49032208460124C068CE7835
:101E8000401C01F10903C8603EB1B0FBF2F102FB56
:101E90001101DE1D36F81110E962B0FBF2F102FB10
:101EA00011001C5470BD00000000002002460020FC
:101EB00041B1042909D008290AD00C2901D11068A0
:101EC000006C70471068406B70471068806B7047FB
:101ED0001068C06B7047704770477047F8B502686C
:101EE00004461068D168536910F00F0F4FF00005D9
:101EF00053D003F0010601F4907737435FD0C20757
:101F000005D0CA0503D5226C42F0010222644207C3
:101F100005D5DA0703D0226C42F002022264820760
:101F200005D5DA0703D0226C42F0040222640207CE
:101F300007D501F02002324303D0226C42F00802A0
:101F40002264226C002A34D0800604D5880602D58B
:101F5000204600F02EFD20684069216CC0F38010FF
:101F6000090700D430B3204600F00BFD206841691A
:101F700049061BD5416921F040014161A06BA8B120
:101F800058494163A06BFEF7B9FD002811D0A06B42
:101F9000416B01B0BDE8F040084783060FD58B06C2
:101FA0000DD52046BDE8F84000F003BD2046FFF700
:101FB00094FFF8BD2046FFF790FF2564F8BD266B1F
:101FC0002023012E52D1C60650D5CE064ED510681C
:101FD00050680090506940062AD5A16B0868406897
:101FE0000004000CEAD0A68D8642E7D9E085886916
:101FF000202818D0D06820F48070D0602068416913
:1020000021F0010141612068416921F040014161F5
:1020100084F83E3025632068C16821F01001C1605A
:10202000A06BFEF748FDA08DE18D401A81B219E04A
:10203000A08DE18D401A81B2E08D0028BED000292C
:10204000BCD0D06820F49070D0602068426922F043
:102050000102426184F83E3025632068C26822F0A4
:102060001002C2602046FFF737FFF8BD05062BD5EA
:102070000D0629D594F83D002128F6D1A068B0F5C9
:10208000805F01D12069B0B1206A411C21622168C2
:1020900000784860E08C401E0004000CE084E4D12D
:1020A0002068C16821F08001C1602068C16841F0EA
:1020B0004001C160F8BD206A0088C0F3080050608C
:1020C000206A801C2062E5E74006F3D54806F1D57A
:1020D000D168204621F04001D16084F83D3000F005
:1020E00004F9F8BD7329000870B5040004D094F811
:1020F0003D00002510B106E0012070BD84F83C5081
:10210000204600F023F8242084F83D002068C168B0
:1021100021F40051C160204600F0A6FC206801694E
:1021200021F4904101612068416921F02A01416157
:102130002068C16841F40051C1602564202084F802
:102140003D0084F83E00002070BD000030B585B031
:102150000024009401940294039400681849884272
:102160002CD11848816941F480418161816901F471
:1021700080410491816941F0040181618069124DBF
:1021800000F0040004904FF40070009002200190D1
:102190000320039069462846FEF70EFD2815CDE979
:1021A0000004694628460294FEF706FD0022114607
:1021B0002520FEF7EFFF2520FEF7DEFF05B030BD3E
:1021C00000380140001002400008014090F83E3005
:1021D000202B0ED159B152B190F83C30012B08D0D0
:1021E000012380F83C300023036300F099BC0120F8
:1021F000704702207047000000680C49884214D1E3
:102200000B494A790D2A05D00A4B08781A54401C0C
:10221000087003E000200870012048700449054858
:102220000122491D5838FFF7D1BF704700380140DF
:10223000000000209C0100202DE9F843044690F89E
:102240003D001F4616460D4620284CD1C5B1BEB1F3
:1022500094F83C00012846D0012084F83C004FF05F
:102260000008C4F84080212084F83D00FEF79EFD60
:10227000A6848146E684A068B0F5805F03D004E0C0
:102280000120BDE8F883206928B12E465FF00005E3
:1022900084F83C800EE00026FAE78021204600F01A
:1022A0005AFCA0B9AEB116F8010B21684860E08C69
:1022B000401EE084E08C4B464FF00002009700285F
:1022C000EBD14FF04001204600F045FC30B1032037
:1022D000D7E735F8020BC0F30800E6E7202084F8C2
:1022E0003D000020CDE70220CBE7704770B501220A
:1022F0000A4DD40321462846FEF753FD0A2001F07B
:10230000F7F8002221462846FEF74BFD04480068F6
:10231000C16841F00201C16070BD0000000C0140C5
:10232000B400002003484069B0F5000F00DA02480D
:10233000704700003C000020000080BFFEE70168FD
:102340004A69D24352050FD46FF480624A6100217A
:1023500040F8301F202242738173026942F0040268
:10236000026101730120704700207047F8B50446F0
:10237000C06A1E460D461746082807D0012805D01A
:1023800010F5803F02D0206B122804D1206801682C
:1023900041F480710160134600224FF00111204684
:1023A000009600F057F840B120680068C00502D5DB
:1023B0004FF4007020640320F8BD2069B0F5804F11
:1023C0000ED00620216800EAD51040F0F000086128
:1023D00033463A460B49204600F070F878B902E0DF
:1023E00005F0FE0000E0E8B22168086105493346C7
:1023F0003A46891F204600F061F80028DCD0012011
:10240000F8BD00000800010070B516460D460446F0
:102410000DE02046FFF793FF08B1012070BD681C56
:1024200005D0FEF7C3FC801BA84207D835B1206851
:102430004069C0434007ECD4002070BD002044F840
:10244000300F20216173A073216941F020012161C7
:102450002073E2E72DE9F0471E4690460D460446FC
:10246000C1F30747DDF8209008E0701C06D0FEF7A6
:102470009DFCA0EB0900B0420FD876B12068012F77
:1024800018D0806925EA00000004000C14D0002157
:102490004145EAD00020BDE8F087002044F8300F25
:1024A00020216173A073216941F020012161207313
:1024B0000120F0E74069E5E70121E9E72DE9F04770
:1024C0009A4691460E46044600254FF02008C1F377
:1024D000074725E020684069C043400514D42068C0
:1024E000016841F40071016021686FF48060486107
:1024F000256384F83D8084F83E50206C40F0040051
:10250000206484F83C501FE0B9F1FF3F08D0FEF78B
:102510004DFCA0EB0A0149450CD8B9F1000F09D0D8
:102520002068012F13D0806926EA00000004000C07
:102530000BD0CFE744F8305F84F80D80A573206995
:1025400040F02000206125730120BDE8F08740693C
:10255000EAE770B516460D4604460DE02046FFF743
:10256000EEFE08B1012070BD681C05D0FEF71EFC10
:10257000801BA84207D835B120684069C0430006D7
:10258000ECD4002070BD002044F8300F202161738E
:10259000A073216941F0200121612073E2E700006E
:1025A0002DE9F04786B000242C4800940194029451
:1025B0000394816941F010018161816901F010018A
:1025C0000491816941F020018161816901F020015C
:1025D0000491816941F004018161816901F0040184
:1025E0000491816941F0080181618069DFF87080A0
:1025F00000F008004FF400550490002229464046A0
:10260000FEF7CFFBDFF85C90002202214846FEF780
:10261000C8FBDFF854A0AF00002239465046FEF751
:10262000C0FB0126CDE90056022569464046CDE9AA
:102630000245FEF7C1FACDE9005669464846CDE9A4
:102640000245FEF7B9FACDE9007669465046CDE974
:102650000245FEF7B1FA06B0BDE8F087001002406F
:102660000010014000080140000C014010B586B088
:102670000024194805940494009401940294154987
:10268000039401604721C0E901144FF6FE71C0E9CF
:10269000031444618461FFF760FA08B172B6FEE783
:1026A000049404A90C480594FFF738F808B172B6F1
:1026B000FEE70120CDE90040029400226946064869
:1026C0000394FFF7C3F9002801D072B6FEE706B005
:1026D00010BD0000002C0140B400002010B586B0F1
:1026E00000241748009401940294039404944FF03A
:1026F00080410594016041F61F41C0E9011440F694
:102700009F71C0E9031480218161FFF73BF808B194
:1027100072B6FEE74FF48050009069460848FFF714
:10272000CFF808B172B6FEE7049404A904480594F2
:10273000FEF7F4FF002801D072B6FEE706B010BD28
:10274000FC000020FEE7FEE7704770471FB500223F
:1027500000910192029203926946FEF72DFA1FBD85
:102760001FB5002200910121CDE901120221039140
:102770006946FEF721FA1FBDFEF7A6BC30B58FB043
:1027800028216846FDF7E7FC14210AA8FDF7E3FCC1
:1027900001210804CDE900100024029402250491CF
:1027A000CDE907504FF4E01009906846FEF710FE9F
:1027B00008B172B6FEE70F20CDE90A054FF480603C
:1027C000CDE90C4002210AA80E94FEF715FD002861
:1027D00001D072B6FEE70FB030BD70470148FFF779
:1027E0008DBA0000B40000200148FFF787BA00004E
:1027F000FC000020F0B50268164B174C174D4FF047
:102800008047984205D0B84203D0A04201D0A842E8
:1028100003D122F070064A683243984205D0B8428C
:1028200003D0A04201D0A84203D122F44074CA6868
:1028300022434C6922F08002224302608A68C2620D
:102840000A688262984201D10969016301214161EC
:10285000F0BD0000002C01400004004000080040D2
:1028600010B501F01F030121046A99408C430462F2
:10287000016A9A401143016210BD10B5846842EAB2
:10288000032224F47F440A432243826010BD8268FD
:1028900022F070020A4342F007018160704710B5D0
:1028A000036A046A24F001040462846924F0F004D9
:1028B00044EA021423F00A020A438461026210BD52
:1028C00070B5046A24F0010404628469056A0F4E3D
:1028D000B04208D0B0F1804F05D00D4EB04202D0CA
:1028E0000C4EB04203D124F00304144301E044F041
:1028F00001041A0724F0F00444EA126225F00A03E6
:1029000001F00A0119438261016270BD002C01408F
:10291000000400400008004010B5036A23F01003D3
:1029200003628369046A23F4704343EA023224F0A9
:10293000A00343EA01118261016210BD30B5046A4F
:1029400024F0100404628469056A24F4407444EAA3
:10295000022222F470444FF6FF7202EA033222434D
:10296000A02425F0A00304EA011119438261016249
:1029700030BD10B5406A0021C185C184FFF7ADFAB2
:1029800010BD0168CA6822F49072CA6001684A6981
:1029900022F001024A61016B012904D10168CA6871
:1029A00022F01002CA60202180F83E10002101634D
:1029B000704708B590F83E10222901D0022008BDCA
:1029C00082684FF480539A4201D1016921B1816A32
:1029D0009A421BD04AB10AE00268816A5268C2F387
:1029E00008020A80816A891C08E0026972B10268E3
:1029F000526802F07F020A70816A491C8162C18DAF
:102A0000491E0904090CC18503D019E00268526807
:102A1000F1E70168CA6822F02002CA600168CA684A
:102A200022F48072CA6001684A6922F001024A6198
:102A3000202180F83E10016B012903D0FFF7DCFB59
:102A4000002008BD002101630168CA6822F010025D
:102A5000CA6001680A68D20602D50A68496800910E
:102A6000818DFFF739FAEBE770B50446006801691C
:102A7000E26821F44051114301612169A0680843D3
:102A8000616908432168CA6841F20C639A430243B2
:102A9000CA6020684169A26921F440711143416113
:102AA0001E492068884202D1FEF74CFC01E0FEF787
:102AB00039FC00EBC00101EB00126068642180006A
:102AC000B2FBF0F3B3FBF1F36FF018067343B2FB04
:102AD000F0F5B2FBF0F605EB8305322303EB0515A9
:102AE000B5FBF1F5B6FBF1F605F0F00505EB0615C3
:102AF000B2FBF0F6B2FBF0F0B0FBF1F06FF01802B1
:102B0000504306EB800003EB0010B0FBF1F02168AE
:102B100000F00F002844886070BD000000380140BC
:102B200081628285C28500210164222280F83E20D4
:102B300080F83C100168CA6842F48072CA6001687B
:102B40004A6942F001024A610068C16841F020010F
:102B5000C160002070472DE9F041984617460E46A7
:102B60000446069D1DE0681C1BD02DB1FEF71EF922
:102B7000A0EB0800A84214D92068C16821F4D071E4
:102B8000C1602068416921F001014161202084F881
:102B90003D0084F83E00002084F83C000320BDE89E
:102BA000F0812068006836EA000004D00020B842B6
:102BB000D9D00020F3E70120F9E700000148FFF732
:102BC0008DB9000044010020FEE700000FB4054B62
:102BD00010B503A9044A029800F002F910BC5DF890
:102BE00014FB000021350008580000200FB4084BEA
:102BF00010B504A902AA039800F0F2F8044602A94D
:102C0000002000F070FC204610BC5DF814FB0000B2
:102C1000E73400080907090E002804DB00F1E02072
:102C200080F80014704700F00F0000F1E02080F8F9
:102C3000141D7047004870475C00002002E008C87F
:102C4000121F08C1002AFAD170477047002001E026
:102C500001C1121F002AFBD1704700002DE9FF5F60
:102C600082B00021DDE90430020DDDF840B00343FD
:102C700018D044F61050A2F2FF32424315141198B6
:102C800001281FD0A5EB0B00401C5FEA000A4FF0A3
:102C900000064E4FDFF83891B046504615D5CAF1C0
:102CA000000413E0119801244AA3012801D16FEA1E
:102CB0000B010298119AC0E90031C0E9024206B046
:102CC000BDE8F09FCBF10000DFE704460021404A59
:102CD000491842EB0450CDE9001012E0E00707D09C
:102CE00032463B4640464946FDF76FFA80468946E4
:102CF00032463B4610461946FDF767FA06460F4630
:102D00006410002CEAD1DDE90401DDE90023BAF109
:102D1000000F06DAFDF759FA42464B46FDF755FA21
:102D200005E0FDF7C4FA42464B46FDF7C0FA0446FB
:102D30000E460022284BFDF763FD03D84FF0FF300D
:102D4000014607E00022254B20463146FDF798FC5E
:102D5000FDF73DFD102409E0002C0ADB0A220023C8
:102D6000FDF791FB039B30321A55641E50EA0102B5
:102D7000F2D1641C039AC4F111031444119A012A7C
:102D800003D0012208430DD10AE0084304D00020FB
:102D90004FF0110B119072E7A3EB0B056D1E0DE0C8
:102DA0005B4504DD4FF0000205F1010504E003DAA4
:102DB0004FF00002A5F10105002AECD0029811990C
:102DC000C0E90231C0E9004579E700000000144085
:102DD0000000F03F300000000000F0430000E03F42
:102DE0002DE9FF4F95B09A46884606460025EEE14C
:102DF000252877D100242746F94A0121039400E0D1
:102E0000044316F8013F203B01FA03F01042F7D1CA
:102E100030782A2811D06FF02F033078A0F13002DB
:102E2000092A16D8039A44F0020402EB820203EB4B
:102E300042021044761C0390EFE758F8042B0392EB
:102E4000002A03DA504244F40054039044F0020490
:102E5000761C30782E2816D116F8010F44F00404A1
:102E60002A280DD06FF02F023078A0F13003092B03
:102E700009D807EB870302EB4303C718761CF3E777
:102E800058F8047B761C30786C280FD006DC4C2870
:102E900017D068280DD06A2814D104E0742810D007
:102EA0007A280FD10DE044F400140AE044F48014B1
:102EB00001E044F440147278824202D104F5801497
:102EC000761C761C307866280BD013DC582877D017
:102ED00009DC002875D04528F6D04628F4D04728CC
:102EE0001AD193E118E0632835D0642879D0652899
:102EF00012D18BE1702873D008DC6728F1D06928E3
:102F00006FD06E280DD06F2806D1ACE073282CD07E
:102F1000752874D0782853D05246179990476D1C65
:102F200054E1C4F30250022809D003280DD0D8F888
:102F3000001004280DD00D6008F1040846E1D8F80F
:102F40000010EA17C1E90052F6E7D8F800100D802A
:102F5000F2E70D70F0E718F8041B8DF80010002060
:102F60008DF80100EB46012003E058F804BB4FF058
:102F7000FF3061074FF0000102D40DE009F10101BB
:102F80008946B9420FDA8145F8DB1BF809100029A0
:102F9000F4D108E009F1010189468142FADB1BF80E
:102FA00009100029F6D103985346A0EB09072146E2
:102FB0003846179A00F080FA284400EB090507E02C
:102FC00044E008E10DE01BF8010B524617999047C9
:102FD000B9F10109F7D2534621463846179AF2E073
:102FE00039E00A21C4F302524FF0000B0091022A8B
:102FF00006D058F8040BC117032A09D00AE023E0D1
:1030000008F1070020F00702F2E80201904605E00F
:1030100000B2C117042A01D140B2C117002906DA53
:103020000A460021404261EB02012D2202E0220506
:1030300004D52B228DF80420012203E0E20701D001
:103040002022F7E7914657E00A2100E010214FF0D7
:10305000000B00910BE010214FF0000B44F0040432
:103060000827009103E008204FF0000B0090C4F304
:103070000252022A05D058F8040B0021032A08D076
:1030800008E008F1070020F00702F2E8020190468C
:1030900003E080B2042A00D1C0B24FF00009220739
:1030A0002AD53278702A07D0DDF800C08CF0100CD9
:1030B0005CEA0B0C05D00EE040228DF804200122C2
:1030C00008E050EA010306D030238DF804308DF873
:1030D000052002229146009B83F0080353EA0B036C
:1030E0000AD150EA010201D1620705D530228DF8DC
:1030F00004204FF001097F1E3278582A04D039A2EB
:103100000C920CAA02920BE03BA2F9E75B46009AF4
:10311000FDF7B9F90C9B9B5C029A521E0292137048
:1031200050EA0102F2D1029804A9081A00F1200B1A
:10313000600702D524F4803400E001275F4502DDFA
:10314000A7EB0B0000E0002000EB0B0100900398C0
:103150004944401A0390E00306D453462146179A87
:10316000039800F0A9F90544002706E001A852469B
:10317000C05D179990476D1C7F1C4F45F6DBE0033F
:103180000CD553462146179A039800F095F905444B
:1031900004E030205246179990476D1C0099481E54
:1031A00000900029F5DC08E0029802995246007868
:1031B000491C0291179990476D1CBBF10001ABF1BE
:1031C000010BF1DC5BE100F065F90544761C307819
:1031D00000287FF40DAE19B02846BDE8F08F00003E
:1031E00009280100303132333435363738396162DD
:1031F00063646566000000003031323334353637A1
:10320000383941424344454600000000600700D47D
:10321000062708F1070020F00700F0E802238046A7
:1032200003F0004C5FEA0C0001D097A009E02005F4
:1032300001D596A005E0E00701D095A001E0AFF22E
:103240004C001390307823F0004365280CD006DC46
:10325000452809D046281DD047287FD13BE0662865
:1032600018D067287AD136E00021112F01DB112018
:1032700000E0781CCDE9000104A90CA8FFF7EEFCE2
:10328000DDE90D010C9A4FF0000B07F101091092D6
:1032900000914EE04FF000400097CDE9011004A9E5
:1032A0000CA8FFF7DBFCDDE90D020C9B0F994FF03A
:1032B000000B91461093009211B9791C00EB0109A3
:1032C000B7EB090003D4C0F1FF3B07F10109A9EBFB
:1032D0000700019042E0012F00DA01270021112FA1
:1032E00001DD112000E03846CDE9000104A90CA859
:1032F000FFF7B4FCDDE90D010C9A00914FF0000BD3
:10330000B946109221070FD4009A4A4503DA914634
:1033100001E0A9F10109B9F1010F05DD109AA9F148
:103320000101515C3029F4D0B84202DA10F1040FE7
:1033300003DA0121CDE9011010E0002803DC834409
:10334000A9EB000102E0411C494500DD8946A0EBE4
:103350000B00401C01904FF000400290200705D464
:103360000198484502DB4FF0FF30019000208DF8B6
:103370004B0002980DF14B07B0F1004F25D0022011
:103380000C902B200D90029800280CDA40420290FD
:103390002D200D9007E00A210298FDF75EF83031EC
:1033A000029007F8011D0C99481E0C900029F2DCD0
:1033B00002980028EFD1791E0D980870307800F03F
:1033C000200040F0450007F8020D11A8C01BC01DE9
:1033D00002901398007800B1012000EB09010198D8
:1033E00001EBE071029801440398401A401E0390DB
:1033F000E00306D453462146179A039800F05CF880
:1034000005441398007818B15246179990476D1CDF
:10341000E00323D553462146179A039800F04CF851
:1034200005441BE0BBF1000F07DB0098584504DDA5
:103430001098179910F80B0001E0179930205246A8
:10344000904701980BF1010B401E05F10105019019
:1034500004D12E205246179990476D1CB9F10001F6
:10346000A9F10109DEDC05E017F8010B52461799B6
:1034700090476D1C0299481E02900029F4DC5346C7
:103480002146179A03989EE62D0000002B000000AD
:10349000200000002DE9F041044600251E46174695
:1034A000880404D405E039462020B0476D1C641E12
:1034B000F9D52846BDE8F0812DE9F0410446002504
:1034C0001E469046C80301D5302700E02027880417
:1034D00004D505E041463846B0476D1C641EF9D559
:1034E0002846BDE8F0810A68531C0B6010707047D5
:1034F000044900220B685A6209684A6A8242FCD376
:1035000070470000B4000020044900220B685A6292
:1035100009684A6A8242FCD370470000B400002068
:1035200013B50A23012269460248FEF785FE0020F2
:103530001CBD00004401002010B53220FDF72AFB1D
:10354000302000F041F80520FDF724FB302000F08A
:103550003BF80120FDF71EFB302000F035F80A2073
:10356000FDF718FB202000F02FF80A20FDF712FBD2
:10357000282000F029F80120FDF70CFB082000F0BE
:1035800023F80120FDF706FB012000F01DF80120C3
:10359000FDF700FB0120FDF7FDFA062000F014F80E
:1035A0000120FDF7F7FABDE810400C2000F00CB840
:1035B00010B1012805D102E041F0800101E041F0A5
:1035C000C001C8B2AFF300801CB500F0F00141F0BB
:1035D0000C028DF8042041F0080100018DF805105F
:1035E00040F00C018DF8061040F008008DF807003F
:1035F00064200090042301AA4E210248FDF7A0FC9C
:103600001CBD0000600000201CB500F0F00141F07E
:103610000D028DF8042041F0090100018DF805101C
:1036200040F00D018DF8061040F009008DF80700FC
:1036300064200090042301AA4E210248FDF780FC7B
:103640001CBD00006000002010B5044602E0641CB0
:10365000FFF7DAFF20780028F9D110BD1CB5FDF77F
:103660003BFDFFF78BF8FEF79BFF70486E49002586
:1036700001606F49C0E901154FF48041C0E9035171
:1036800045618561C5610562FDF796FB08B172B6BB
:10369000FEE7FEF7EBFF65486649E43001604FF452
:1036A000E131C0E901150C21C560C0E90451856113
:1036B000C561FEF719FD08B172B6FEE7FFF70EF817
:1036C0005A4801225C49E430FEF780FD574800214A
:1036D0005430FEF7A3FA55485430FEF79DF853488E
:1036E0009C30FEF7C1F8DFF850B14FF0010A0BF142
:1036F0000B0BABF1100404F10906607830B34F49AD
:103700004F48FCF733FD0746FCF752FD0246A07810
:10371000D8462BF81020401CA0700CE04749002030
:10372000FCF724FD0746FCF743FD0146A07828F886
:103730001010401CA070002FF0D114214048FCF75D
:103740000AFD6570A570E56084F803A03078012853
:1037500010D1FEF7CBFDFEF7E5FD0746FCF73AFE7C
:1037600020723846FCF74AFE02460B4635A0FFF7AA
:103770002DFA35707078012821D16846FDF73CF9A3
:10378000DDE900012C4FC4E9060113378146FCF73F
:1037900021FEA0717F683846FCF71CFEE0713846B8
:1037A000FCF72CFE074688464846FCF727FECDE985
:1037B000007802460B4627A0FFF708FA7570B0782C
:1037C00001289AD1207918B9FFF7B6FE84F804A031
:1037D0001B48E379A27925A11438FFF707FA0021E5
:1037E0000846FFF7E5FE16481438FFF72DFF14488A
:1037F000227A22A11438FFF7F9F902210120FFF7FC
:10380000D7FE0F481438FFF71FFF207A0A2806D288
:103810000C210120FFF7CCFE1BA0FFF715FF1BA01A
:10382000FFF7D4F9B57068E700540040600000204D
:10383000A086010000380140050000209C380008E7
:103840009C01002044495354414E43453D20256688
:103850000A00000054454D503D202566202E20488A
:103860005544493D2025660A0000000054454D504E
:103870003D25642048554D493D2564004449535435
:10388000414E43453D2564002020200046524F4DC7
:10389000204C4344205441534B0A00002C000000AC
:1038A00000000000000001020304060708090000F0
:1038B00000000102030400404040404040404040BE
:1038C00041414141414040404040404040404040F3
:1038D0004040404040404005020202020202020213
:1038E00002020202020202202020202020202020AA
:1038F000200202020202020290909090909010101A
:1039000010101010101010101010101010101010B7
:10391000101002020202020288888888888808083B
:103920000808080808080808080808080808080817
:103930000808020202024000B73800085C3900089B
:1039400000000020600000003C2C0008BC3900088A
:1039500060000020500500004C2C00080000000012
:103960000000000000000000000000000000000057
:103970000000000000000000000000000100000046
:1039800010000000000000000024F400000000000F
:103990000000000000000000000000000000000027
:1039A0000000000000000000000000000000000017
:0C39B0000000000000000000000000000B
:04000005080000ED02
:00000001FF
