:020000040800F2
:10000000001C00209D010008E72A00084D2600087A
:10001000E52A00087B0900083930000800000000CC
:1000200000000000000000000000000005010008C2
:100030006B0B00080000000049010008192B0008A4
:10004000B7010008B7010008B7010008B7010008B0
:10005000B7010008B7010008B7010008B7010008A0
:10006000B7010008B7010008B7010008B701000890
:10007000B7010008B7010008290B0008350B00087C
:10008000B7010008B7010008B7010008B701000870
:10009000B7010008B7010008B7010008B701000860
:1000A000B7010008B7010008B7010008A52B000838
:1000B000B12B0008BD2B0008B7010008B7010008EC
:1000C000B7010008B7010008B7010008B701000830
:1000D000B70100082D300008B7010008B70100087B
:1000E000B7010008B7010008B7010008DFF810D019
:1000F00000F010FC00480047B13A0008AFF3008060
:10010000001C0020224B19680868B0E8F00F80F34B
:100110000988BFF36F8F4FF0000080F311884EF015
:100120000D0E70470000000006480068006880F36C
:10013000088862B661B6BFF34F8FBFF36F8F00DFE1
:1001400000BF00BF08ED00E0EFF30980BFF36F8F41
:100150000F4B1A6820E9F00F106008B54FF05000FF
:1001600080F31188BFF34F8FBFF36F8F04F096FCBD
:100170004FF0000080F31188BDE808401968086856
:10018000B0E8F00F80F30988BFF36F8F704700BFAE
:1001900044000020EFF305807047000006488047C8
:1001A00006480047FEE7FEE7FEE7FEE7FEE7FEE75C
:1001B000FEE7FEE7FEE7FEE7A32B0008ED000008E0
:1001C000202A04DB203A21FA02F00021704721FAAC
:1001D00002F3D040C2F12002914008431946704713
:1001E00040EA01039B0703D009E008C9121F08C0B9
:1001F000042AFAD203E011F8013B00F8013B521E39
:10020000F9D27047D2B201E000F8012B491EFBD2AF
:1002100070470022F6E710B513460A460446194611
:10022000FFF7F0FF204610BD421C10F8011B00290B
:10023000FBD1801A70472DE9FE4F81EA030404F0D8
:10024000004421F0004100944FF0000B23F00043E4
:1002500050EA01045ED052EA03045BD0C3F30A54AF
:10026000C1F30A552C44A4F2F3340194A0FB0254C8
:10027000C1F3130141F48011C3F3130343F480135A
:1002800001FB024400FB034E840A970A44EA8154AE
:1002900047EA8357A4FB076802958D0A05FB07858B
:1002A0004FEA932C04FB0C542705029D4FEA065895
:1002B00047EA1637B5EB08056EEB070C870E920E72
:1002C00047EA811742EA8312A7FB0201B6EB0B0152
:1002D00064EB00042B0D43EA0C335E1844EB1C5016
:1002E000DA465146E7FB0201C5F313044FEA0B332C
:1002F00043EA14534FEA0432019C43EA0603A4F193
:100300000C040294009CCDE900B400F082F903B023
:10031000BDE8F08F00200146F9E72DE9F04D81EAB4
:10032000030404F0004B21F0004514464FF0000A8E
:1003300023F0004150EA050220D054EA01021DD00A
:10034000C5F30A570246C5F31303C1F31300C1F303
:100350000A5640F4801543F48013A7EB0608101BDF
:10036000D64608F2FD3873EB050002D308F1010808
:1003700001E092185B41B8F1000F03DA002001465A
:10038000BDE8F08D00204FF48011064684460EE053
:10039000171B73EB050705D3121B63EB050306431D
:1003A0004CEA010C49084FEA300092185B4150EAD0
:1003B0000107EDD152EA030012D082EA040083EA79
:1003C0000501084305D0101BAB4106D201220023D2
:1003D00006E000224FF0004302E06FF001025310EC
:1003E0001AEB06004CEB085110EB0A0041EB0B0135
:1003F000BDE8F04D00F0FEB870B521F000430343B6
:100400000CD0C1F30A550024D5EB040564EB0403BA
:10041000D617AD1AB34102DB0020014670BD20188B
:1004200041EB025170BD0EB540F233410291002103
:10043000CDE900110A460B4600F0EBF803B000BD11
:1004400020F00040C10DC0F3160040F400007F29E9
:1004500001DA00207047962903DCC1F19601C840FB
:100460007047963988407047C1F30A5210B5C1F3FE
:10047000130140F2FF3341F480119A4201DA002067
:1004800010BD40F233439A42A2F2334203DC52429F
:10049000FFF796FE10BD904010BD00F0004230F016
:1004A00000400AD0C10D01F56071C0F3160042EAA8
:1004B0000151C208400711437047002001467047B0
:1004C00001F0004330B421F0004150EA010206D0AF
:1004D0000A0DA2F56072C1F31301002A02DC30BCE0
:1004E00000207047440F44EAC104C100E01830BC4A
:1004F00000EBC25000F047B830B50B460146002073
:100500002022012409E021FA02F59D4205D303FAD5
:1005100002F5491B04FA02F52844151EA2F1010256
:10052000F1DC30BD2DE9F05F0546002092469B4688
:1005300088460646814640241BE0284641464746F9
:100540002246FFF73DFE53465A46C01A914110D34A
:1005500011461846224600F0EFF92D1A67EB010804
:100560004F4622460120002100F0E6F917EB000972
:100570004E41201EA4F10104DFDC484631462A46E4
:100580004346BDE8F09F0029A8BF7047401C4900C2
:1005900008BF20F00100704710B4B0FA80FC00FAE8
:1005A0000CF050EA010404BF10BC704749B1CCF113
:1005B000200421FA04F411FA0CF118BF012121439F
:1005C0000843A3EB0C01CB1D4FEA00614FEA10205A
:1005D00042BF002010BC704700EBC35010440029FC
:1005E000A4BF10BC7047401C490008BF20F00100A8
:1005F00010BC704710B5141E73F1000408DA401CDB
:1006000041F1000192185B411A4301D120F0010031
:1006100010BD2DE9F04D92469B4611B1B1FA81F221
:1006200002E0B0FA80F22032904600F085F90446EC
:100630000F4640EA0A0041EA0B0153465A46084376
:1006400013D0114653EA010019D0C8F140025046B8
:10065000FFF7B6FD05460E4650465946424600F0A5
:100660006BF9084305D0012004E020463946BDE877
:10067000F08D0020054346EAE0762C4337430A9884
:100680006305E40AA0EB08000022FD0A44EA47548F
:100690000A3002D500200146E9E701051019694139
:1006A000DDE9084500196941BDE8F04DA2E72DE9F3
:1006B000FE4F804681EA0300C00F0C46009021F0F7
:1006C000004123F00045B8EB0200A94105D24046A5
:1006D000214690461C460B46024623F0004010433C
:1006E00047D0270DC7F30A00C3F30A510290401AFE
:1006F000019040286BDAC3F3130040F4801B00988C
:10070000924620B10023D2EB030A63EB0B0B019856
:100710005946C0F14002504600F00EF906460D461B
:1007200050465946019A00F016F910EB0800614155
:10073000002487EA115284EAE7731A4340D0009AF2
:1007400062B3019A012A4FEA075215DC001B61EBE4
:1007500002014FF0004202EA0752CDE90042001CBC
:1007600041F5801132462B46FFF753FF03B0BDE839
:10077000F08F40462146F9E7001B61EB0201001CA7
:1007800041F5801300185B412018A2F5001747EBD4
:10079000030140EAD570B6196D4111E06D084FEACA
:1007A000360645EAC0754FEA0752001B61EB0201AD
:1007B000001C41F5801149084FEA300000195141F1
:1007C00032462B4603B0BDE8F04FFFF713BF009849
:1007D000012240000023D0EB020263EBE07300989B
:1007E00021464FEAE074B8EB000061EB0401E9E751
:1007F00083F000435BE781F0004158E72DE9F041C9
:10080000054621F000400C46284309D0C4F30A50A5
:1008100040F23341884205DD28462146BDE8F0819B
:100820002846FBE740F2FE31884210DC0CDB4FEA41
:10083000043040EA155050EA053105D0104804F064
:10084000004101430020E9E700200146E6E7A0F26D
:1008500033404642C6F140022846214600F06CF87B
:1008600007468846284621463246FFF7A9FC4346FC
:100870003A46FFF7BFFE3246BDE8F04100F05CB8F3
:100880000000F03FC1F30A52C1F3130140F2FF33FD
:1008900041F480119A4202DA00200146704740F28A
:1008A00033439A42A2F2334202DC5242FFF788BC41
:1008B00000F042B830B5041E71F1000404DB4FF0C3
:1008C0000044404264EB0101141E73F1000405DB97
:1008D0001C464FF00043524263EB04038B4208BFB7
:1008E000824230BD30B5041E71F1000404DB4FF0CC
:1008F0000044404264EB0101141E73F1000405DB67
:100900001C464FF00043524263EB0403994208BF78
:10091000904230BD064C074D06E0E06840F0010310
:1009200094E8070098471034AC42F6D3FFF7E2FB97
:10093000D8570008F8570008202A04DB203A00FAAC
:1009400002F1002070479140C2F1200320FA03F326
:10095000194390407047202A06DBCB17203A41FA12
:1009600002F043EAE07306E041FA02F3D040C2F13C
:1009700020029140084319467047FEE770B50024F5
:10098000282003F001F80C4D0221284600F060FBFE
:1009900050B9502002F0F8FF0221284600F058FB21
:1009A00008B1012400E0FF240221284600F050FB9A
:1009B0000028F9D1204670BD000801402DE9F04122
:1009C0000024144F01260221384600F041FB002884
:1009D000F9D0282002F0D8FF0221384600F038FB79
:1009E00090B1C4F1070106FA01F02843C5B2022113
:1009F000384600F02DFB0028F9D1641CE4B2082C25
:100A0000E1D32846BDE8F081C4F1070006FA00F002
:100A10008543ECE7000801402DE9F041054600F070
:100A200063F8FFF7ABFF194C2070FFF7C7FF60704A
:100A3000FFF7C4FFA070FFF7C1FFE070FFF7BEFF34
:100A40002071FFF7BBFFE0802079E17840EA0120C8
:100A50006081A178627841EA02262681FFF7E3FCF3
:100A60000B4F00223B46FFF758FCFFF729FD0446D9
:100A70003046FFF7D8FC00223B46FFF74EFCFFF75D
:100A80001FFDC5E90040BDE8F0810000D400002052
:100A9000000024400F4C104F86B000264FF0FF3866
:100AA00004F12C054146A06804F018FB04A8FFF7E8
:100AB000B3FFDDE90401C4E90B018DF80060CDE965
:100AC00001706868002303901A466946206904F0A3
:100AD0000DF9E7E700000020000080BF0149C86071
:100AE00070470000D400002010B50E4C02212046B3
:100AF00002F005F800220221204600F0AEFA4FF481
:100B0000966002F041FF01220221204600F0A5FA82
:100B1000142002F039FF2046BDE81040022101F008
:100B2000E3BF000000080140014800F091B8000058
:100B3000B4020020014800F08BB8000070020020D1
:100B400030B590F840500124AC40C56B6C6004682F
:100B500063604368102B036803D099600068C2602B
:100B600030BD9A600068C16030BD704772B6FEE764
:100B700010B590F821100022022905D004218163CC
:100B800080F82020012010BD01680B6823F00E03BF
:100B90000B6001680B6823F001030B6090F8403094
:100BA000C46B012101FA03F3636080F8211080F81F
:100BB0002020104610BD000010B590F82110002430
:100BC000022903D00421816301243DE001680A6801
:100BD00022F00E020A6001680A6822F001020A602F
:100BE0001A4A0168914201D1012121E0174A1432C9
:100BF000914201D110211BE0144A2832914201D1C7
:100C0000891515E0114A3C32914201D189140FE057
:100C10000E4A5032914202D14FF4803108E00B4A23
:100C20006432914202D14FF4801101E04FF08071A3
:100C3000064A083A5160012180F82110002180F80D
:100C40002010416B01B18847204610BD08000240CA
:100C50002DE9F05FC16B0C6801680B68D0F840C0EB
:100C6000042202FA0CF2494DDFF824A1494E4A4F02
:100C7000DFF828B1DFF828E122422CD05A072AD524
:100C80000A68920603D40A6822F004020A60016826
:100C9000A94201D1042219E0514501D1402215E0B9
:100CA000B14202D14FF4806210E0B94202D14FF458
:100CB00080420BE0594502D14FF4802206E0714595
:100CC00002D14FF4800201E04FF080622F490839D1
:100CD0004A60C16A3BE04FF0020808FA0CF818EAD3
:100CE000040F4FF000094FF0010235D05FEA83781E
:100CF00032D50B689B0605D40B6823F00A030B6002
:100D000080F821200168A94201D1022219E0514551
:100D100001D1202215E0B14202D14FF4007210E05F
:100D2000B94202D14FF400520BE0594502D14FF4C1
:100D3000003206E0714502D14FF4001201E04FF09D
:100D40000072124908394A6080F82090816A0029AF
:100D50001AD0BDE8F05F0847082505FA0CF52542D2
:100D600012D01B0710D50B6823F00E030B6090F810
:100D70004010C36B02FA01F15960826380F82120B0
:100D800080F82090016BE2E7BDE8F09F0800024088
:100D90001C00024030000240440002405800024063
:100DA0006C00024030B528B308C813491422194416
:100DB000B1FBF2F18900C1631049816302214177DF
:100DC0001A6843F6F0718A43D0E900142143D0E950
:100DD00002452C432143046921434469214384692A
:100DE00021431143196000214163012242770177B9
:100DF000084630BD012030BDF8FFFDBF00000240B5
:100E000070B5044690F82000002501280CD0012080
:100E100084F8200094F821600020012E06D084F888
:100E200020000225284670BD022070BD022684F8ED
:100E30002160A0632068066826F00106066020464F
:100E4000FFF77EFEE06A00282068016802D041F0CA
:100E50000E0106E021F0040101602068016841F004
:100E60000A0101602068016841F001010160D9E7D1
:100E70002DE9F84FDFF8B891002409F1040A0AF1CE
:100E8000040B23460F270BF1040EC9E00125A540F2
:100E90002A40AA427DD1674ED1F804C0ACEB0608C7
:100EA000B44532D014DCBCF1030F3AD009DCBCF1FC
:100EB000000F2AD0BCF1010F1CD0BCF1020F31D1C0
:100EC0001DE0BCF1110F17D0BCF1120F2AD119E0AF
:100ED000B8F5881F19D006DCB8F5803F15D0B8F5F5
:100EE000801F1FD111E0B8F5001F0ED0B8F5041F08
:100EF00018D10AE0CB6815E0CB681B1D12E0CB6867
:100F000008330FE0CB680C330CE08B682BB1012B5E
:100F10004FF0080303D0456104E0042302E00561BB
:100F200000E00023FF2A01D8064601E000F1040694
:100F30004FEA840501D9A5F12005D6F8008007FA0B
:100F400005FC28EA0C0803FA05F548EA0508C6F886
:100F500000804D68ED0062D5374DAE6946F0010660
:100F6000AE61AD6924F0030605F001050095334D2F
:100F700006EB050CDCF80850A607360F07FA06F852
:100F800025EA0805DFF8B880404503D14FF0000896
:100F900017E044E0DFF8AC80404502D14FF0010893
:100FA0000FE0DFF8A480404502D14FF0020808E0CE
:100FB000DFF89880404502D14FF0030801E04FF080
:100FC000040808FA06F848EA0508CCF808804D68D5
:100FD000D9F80060ED034D4601D5164300E0964375
:100FE0002E604D68DAF80060AD03554601D5164312
:100FF00000E096432E604D68DBF80060ED025D4630
:1010000001D5164300E096432E604D68DEF800607F
:10101000AD02754601D5164300E096432E60641C70
:101020000D682A46E5407FF431AFBDE8F88F000037
:1010300000040140000011100010024000000140B7
:1010400000080140000C0140001001400014014064
:101050008068084000D0012070470AB101617047E4
:101060000904FBE701488068704700003400002055
:1010700070B5040025D094F83D00002520B984F80F
:101080003C50204600F04EF9242084F83D002068B2
:10109000016821F0010101602068016841F400410C
:1010A00001602068016821F40041016000F0D6FA77
:1010B0004D4A6168914201D84C4900E04C49884250
:1010C00001D2012070BD4B492368B0FBF1F15E688D
:1010D00026F03F060E435E606368934206D94FF4E4
:1010E000967359434FF47A73B1FBF3F12368491CAB
:1010F0001E6A26F03F06314319626168914210D89A
:101100004900401EB0FBF1F2521CC2F30B02042A4C
:1011100001D2042022E0B0FBF1F0401CC0F30B0030
:101120001CE0A268F2B301EBC10303EB0116431EFE
:10113000B3FBF6F35B1C43F480431B0549D092B329
:1011400001EBC10202EB0111401EB0FBF1F0401CAB
:10115000C0F30B0040F4804040F400402168CA69AD
:101160004CF6FF739A431043C861D4E9071001435A
:101170002068026822F0C00211430160D4E9030133
:1011800001432068826848F2FF339A43114381602B
:10119000D4E9050108432168CA6822F0FF02104320
:1011A000C86001E00EE016E02068016841F001012E
:1011B00001602564202084F83D00256384F83E50BA
:1011C000002070BD01EB4106431EB3FBF6F35B1C30
:1011D000B3E70120C2E701EB4101401EB0FBF1F093
:1011E000401CC0F30B00B7E7A086010080841E00FE
:1011F00000093D0040420F002DE9F84F1F46904680
:101200008A460446DDF82890FFF72CFF054694F83F
:101210003D0020287FD11923012240492046009516
:1012200001F0A0FA002876D194F83C00012872D091
:10123000012084F83C0020680168C90703D10168D7
:1012400041F0010101602068016821F40061016042
:10125000212084F83D00102084F83E0000262664FA
:10126000C4F824806785608D20852D48E0622B4678
:101270004A465146204601F001FA90B9206841697A
:101280008069009036E02A464946204601F0E9FA96
:1012900050B1206C042804D12068016841F4007129
:1012A00001600120BDE8F88F606A2168007808615C
:1012B000606A401C6062618D491E6185218D491EF6
:1012C00089B2218522685369DB435B070BD451B196
:1012D00000781061606A401C6062608D401E60850D
:1012E000208D401E20852A464946204601F014FAEA
:1012F0000028CED1208D0028C5D154F83D0B0168BF
:1013000041F400710160202004F81E09E677667739
:101310000020C7E7FFE70220C4E70000020010003A
:101320000000FFFF10B586B00021009101910291ED
:10133000039100680F4988421AD10F4CA06940F010
:101340000800A061A069694600F008000490C02070
:10135000009012200190032003900848FFF788FDB9
:10136000E06940F40010E061E06900F400100490CE
:1013700006B010BD0054004000100240000C0140B7
:10138000024881680278114481607047340000206F
:10139000074810B5016841F010010160032000F01A
:1013A00095F8002000F006F800F03EF8002010BD8F
:1013B0000020024000B5014687B000221D2000F049
:1013C00065F81D2000F054F81348C16941F002018E
:1013D000C161C06905A900F002000690684600F0EE
:1013E0001DF900F03BF90D494000B0FBF1F10D484B
:1013F0000B4A491E0260416040F2E7320021C0E919
:101400000321816000F046FB10B1012007B000BD50
:10141000044800F0B1FBF9E70010024040420F0021
:1014200000040040A00900200F4808B5816941F080
:1014300001018161816901F001010091C16941F0FF
:101440008051C161C069002200F0805000900F21DE
:10145000901E00F01BF80548416821F0E06141F062
:101460000071416008BD0000001002400000014012
:10147000002809DB00F01F02012191404009800093
:1014800000F1E020C0F8001170470000F0B40E4BEE
:101490001B680C46C3F30223C3F10705042D00D9D2
:1014A0000425191D072901D2002300E0DB1E0126B7
:1014B00006FA05F1491E214099409E40761E1640CD
:1014C0003143F0BC01F0E0BD0CED00E0064900F056
:1014D000070208684FF6FF03184040EA0220034A5B
:1014E00010430860704700000CED00E00000FA05B2
:1014F0002DE9F0470F46050061D0434E306800F0FB
:101500000700B84209D2306820F007003843306045
:10151000306800F00700B84251D128683B4C810781
:1015200012D5400703D5606840F4E0606060287819
:10153000000703D5606840F4605060606068A96887
:1015400020F0F000084360602878C00728D0686861
:10155000012810D02168022810D0890700292EDA2E
:10156000616821F0030101436160FFF77BFD804664
:1015700041F288390DE021688903EFE78901EDE741
:10158000FFF770FDA0EB0801494502D90320BDE833
:10159000F0876068696800F00C00B0EB810FEFD154
:1015A000306800F00700B8420BD9306820F007001F
:1015B00038433060306800F00700B84201D00120A5
:1015C000E5E72878400705D56068E96820F4E06021
:1015D000084360602878000706D56068296920F410
:1015E000605040EAC100606000F058F86168084A45
:1015F000C1F30311515CC840064908600648006801
:10160000FFF7D8FE0020C2E7002002400010024091
:10161000C057000840000020380000200F22026060
:101620000C4A536803F003034360536803F0F0036C
:101630008360536803F4E063C36052684FF4E0636F
:1016400003EAD20202610448006800F00700086063
:101650007047000000100240002002400448054985
:1016600000684968044AC1F30221515CC8407047D0
:101670004000002000100240D057000804480549EF
:1016800000684968044AC1F3C221515CC8407047F0
:101690004000002000100240D057000812A185B081
:1016A0000FC98DE80F0014A0144A00680490516817
:1016B000134801F00C03042B10D0082B0ED1C1F3FA
:1016C0008343C9031DF803000AD5516804AAC1F376
:1016D0004041515C0A4A5043B0FBF1F005B07047FD
:1016E00008494843FAE70000020304050607080911
:1016F0000A0B0C0D0E0F101001020000001002402A
:1017000000127A0000093D002DE9F84F040070D066
:101710002078C04DC00749D06868C0F38100012817
:1017200007D06868C0F38100022809D16868C00347
:1017300006D52868800339D560680028E7D035E0F1
:101740006068B0F5803F0BD010B1B0F5A02F11D07C
:10175000286820F480302860286820F4802002E087
:10176000286840F480302860606890B1FFF77AFC08
:1017700006460AE0286840F480202860F0E700BFB1
:10178000FFF770FC801B642873D828688003F7D5A6
:101790000CE0FFF767FC064605E000BFFFF762FCC0
:1017A000801B6428F0D828688003F7D420789A4EEC
:1017B00080074FF001094FF0000839D5686810F034
:1017C0000C0F07D06868C0F38100022809D168684F
:1017D000C00306D42868800714D52069012808D1E1
:1017E00010E02069B0B1C6F80090FFF73BFC074657
:1017F00005E00AE1FFF736FCC01B0228C4D82868C0
:101800008007F7D52868616920F0F80040EAC10038
:1018100028600DE0C6F80080FFF724FC074604E0CE
:10182000FFF720FCC01B022823D828688007F7D4C4
:10183000207800072CD57948A169D9B1C0F800906B
:10184000FFF710FC074604E0FFF70CFCC01B022862
:101850000FD8686A8007F7D571484FF4FA510068CD
:10186000B0FBF1F0009000BF0098411E0091FAD249
:101870000EE080E0C0F80080FFF7F4FB074604E0CC
:10188000FFF7F0FBC01B022875D8686A8007F7D401
:101890002078400760D5E8690027C00008D4E869CF
:1018A00040F08050E861E869012700F08050009026
:1018B0005C480168C90513D40168834641F480710E
:1018C0000160FFF7CFFB824606E000BFFFF7CAFBCF
:1018D000A0EB0A0064284ED8DBF80000C005F5D55F
:1018E000E06801280AD008B1052813D0286A20F042
:1018F00001002862286A20F0040002E0286A40F013
:1019000001002862E06841F2883B98B1FFF7AAFB2A
:1019100082460BE0286A40F004002862EEE700BF30
:10192000FFF7A0FBA0EB0A0159455AD8286A8007A7
:10193000F6D50CE0FFF796FB824605E0FFF792FB39
:10194000A0EB0A0159454CD8286A8007F6D41FB18C
:10195000E86920F08050E861E06988B36968C1F304
:101960008101022944D00228C6F8608004D0FFF724
:1019700079FB044638E034E0FFF774FB074604E0E7
:10198000FFF770FBC01B02282BD828688001F7D412
:10199000206AB0F5803F05D16868A16820F4003066
:1019A00008436860D4E908010843696821F47411A8
:1019B00008436860C6F86090FFF754FB044606E0F1
:1019C00025E000BFFFF74EFB001B022809D828685E
:1019D0008001F7D51BE000BFFFF744FB001B022886
:1019E00002D90320BDE8F88F28688001F4D40EE006
:1019F0000128F7D06868226A00F48031914204D14E
:101A0000616A00F47010884201D00120EAE70020EA
:101A1000E8E7000000100240000042428004424219
:101A200040000020007000407047704770B590F88B
:101A30003C20012A26D0012480F83C40022280F874
:101A40003D2003685A689D6822F070060A68324398
:101A50005A600D4B02689A4208D0B2F1804F05D00F
:101A60000A4B9A4202D00A4B9A4204D1496825F0A7
:101A700080031943916080F83D40002180F83C10BC
:101A8000084670BD022070BD002C014000040040DB
:101A90000008004010B5040003D094F83D0010B1D8
:101AA00007E0012010BD002084F83C00204600F033
:101AB0001FF8022084F83D00211D206801F084F801
:101AC000012084F8460084F83E0084F83F0084F842
:101AD000400084F8410084F8420084F8430084F810
:101AE000440084F8450084F83D00002010BD00004B
:101AF00008B50068B0F1804F12D10A48C16941F0C1
:101B00000101C161C069002200F0010000900521BF
:101B10001C20FFF7BBFCBDE808401C20FFF7A8BC59
:101B200008BD00000010024090F83D10012901D0CE
:101B300001207047022180F83D1000680B4988425F
:101B400008D0B0F1804F05D00949884202D0094938
:101B5000884204D1816801F00701062903D0016899
:101B600041F001010160002070470000002C01409D
:101B7000000400400008004090F83D10012901D009
:101B800001207047022180F83D100168CA6842F0C8
:101B90000102CA6000680B49884208D0B0F1804F4A
:101BA00005D00949884202D00849884204D1816899
:101BB00001F00701062903D0016841F0010101602D
:101BC00000207047002C0140000400400008004045
:101BD00070B5044690F83C00012817D0012584F820
:101BE0003C50022084F83D002068826822F0770291
:101BF00022F47F4282600868502830D00DDC202813
:101C00004DD005DC98B310283BD148E0022070BDD0
:101C1000302844D0402834D139E0602828D07028BA
:101C200006D0B0F5805F2CD0B0F5005F29D10AE076
:101C3000CB68D1E90121206801F009F820688168AA
:101C400041F0770109E0CB68D1E90121206800F07B
:101C5000FEFF2068816841F48041816011E0CA681C
:101C60004968206801F005F85021206807E016E077
:101C7000CA684968206801F039F86021206800F0DE
:101C8000F0FF84F83D50002084F83C0070BDCA6825
:101C90004968206800F0EDFF40212068EFE72268E6
:101CA00001461046EBE7000070B50546007F0128AD
:101CB00022D1254C207870B101281DD10021284661
:101CC00000F07CFAA060296800264E6261688842B4
:101CD00013D9401A19E00021284600F06FFA60601D
:101CE000012020702868016A21F00A010162286839
:101CF000016A41F00201016270BD814201D8E068D1
:101D000004E04FF6FF72511A0844E060FEF78BFBC7
:101D10000E4A0F4BFEF78FFA4FF0FF32FEF76CFBC7
:101D2000FEF7CEFB206126702868016A21F00A01C7
:101D300001622868016A016260690068C16821F077
:101D40000201C16070BD0000BC0000209CC420B036
:101D50007268A13F2DE9F041054690F83C000C4621
:101D6000012836D0012085F83C008AB3042A42D0ED
:101D70002868082A51D0D4E90023E168066A26F4CD
:101D800080560662C669076A26F4407646EA03234F
:101D90004FF6FF7606EA013123F4704319434FF4FE
:101DA000005627F4005306EA02321A43C161026268
:101DB0002868C16921F44061C1612868C169A268CD
:101DC00041EA0221C161002085F83C00BDE8F081B4
:101DD00001E00220FAE7D4E90012E368286800F085
:101DE00059FF2868816921F00C01816128688169A7
:101DF000A26811430FE0D4E90012E368286800F0FC
:101E000087FF2868816921F44061816128688169C0
:101E1000A26841EA02218161D5E7D4E90027267B47
:101E2000016A21F480710162C169036A21F0030132
:101E3000394321F0F00731074FF4007647EA11618A
:101E400023F4007306EA02221A43C1610262286881
:101E5000C16921F00C01C1612868C169A268114300
:101E6000B0E710B5040003D094F83D0010B107E0CE
:101E7000012010BD002084F83C00204600F01EF830
:101E8000022084F83D00211D206800F09DFE012005
:101E900084F8460084F83E0084F83F0084F840004F
:101EA00084F8410084F8420084F8430084F8440038
:101EB00084F8450084F83D00002010BD00B585B0D1
:101EC000002100910191029103910068124988421A
:101ED0001FD11248816941F400618161816901F477
:101EE00000610491816941F0040181618069694662
:101EF00000F0040004904FF4807000900848FEF752
:101F0000B7FF002205211B20FFF7C0FA1B20FFF7B7
:101F1000AFFA05B000BD0000002C014000100240E7
:101F20000008014010B5044651B104290DD008291C
:101F300010D094F8410094F84520012811D10EE00A
:101F400094F83E0094F84220F7E794F83F0094F8A4
:101F50004320F2E794F8400094F84420EDE7012A8A
:101F600001D0012010BD022051B1042911D008294F
:101F700018D084F8410084F845000C291BD136E0C4
:101F800084F83E0084F842002068C26842F00202F1
:101F900010E084F83F0084F843002068C26842F0F3
:101FA000040207E084F8400084F844002068C26816
:101FB00042F00802C2600122206800F03BFE0E4998
:101FC0002068884208D0B0F1804F05D00B49884284
:101FD00002D00B49884204D1816801F0070106292B
:101FE00003D0016841F001010160002010BD2068AC
:101FF000C26842F01002DDE7002C014000040040FE
:102000000008004070B50446006801694FF0000503
:10201000C943890715D4C168C943890711D4E91E8A
:10202000016101202077206880698007204602D066
:10203000FFF73AFE04E000F098F8204600F096F82A
:10204000257720680169C943490717D4C168C94386
:10205000490713D46FF00401016102202077206842
:10206000806910F4407F204602D0FFF71DFE04E097
:1020700000F07BF8204600F079F8257720680169A8
:10208000C943090716D4C168C943090712D46FF0C0
:1020900008010161042020772068C069800720467C
:1020A00002D0FFF701FE04E000F05FF8204600F0E8
:1020B0005DF8257720680169C943C90617D4C1684E
:1020C000C943C90613D46FF01001016108202077BD
:1020D0002068C06910F4407F204602D0FFF7E4FD7D
:1020E00004E000F042F8204600F040F82577206830
:1020F0000169C943C90708D1C168C943C90704D1E7
:10210000891E0161204600F033F820680169C94347
:10211000090609D4C168C943090605D46FF08001D6
:1021200001612046FFF780FC20680169C943490628
:1021300009D4C168C943490605D46FF04001016163
:10214000204600F050F820680169C94389060BD485
:10215000C168C943890607D46FF020010161204698
:10216000BDE87040FFF761BC70BD7047704700006C
:1021700038B504460068B0F1804F10D100200090BF
:102180000B486946806802F0BFFE009838B10949E3
:102190004FF080500860BFF34F8FBFF36F8F064939
:1021A0002068884203D1BDE83840FFF7E9B838BD60
:1021B0000000002004ED00E0000400400246002082
:1021C00041B1042909D008290AD00C2901D110688D
:1021D000006C70471068406B70471068806B7047E8
:1021E0001068C06B7047704770477047F8B5026859
:1021F00004461068D168536910F00F0F4FF00005C6
:1022000053D003F0010601F4907737435FD0C20743
:1022100005D0CA0503D5226C42F0010222644207B0
:1022200005D5DA0703D0226C42F00202226482074D
:1022300005D5DA0703D0226C42F0040222640207BB
:1022400007D501F02002324303D0226C42F008028D
:102250002264226C002A34D0800604D5880602D578
:10226000204600F02BFE20684069216CC0F38010EE
:10227000090700D430B3204600F0AEFD2068416964
:1022800049061BD5416921F040014161A06BA8B10D
:1022900058494163A06BFEF78FFC002811D0A06B5A
:1022A000416B01B0BDE8F040084783060FD58B06AF
:1022B0000DD52046BDE8F84000F000BE2046FFF7EF
:1022C00094FFF8BD2046FFF790FF2564F8BD266B0C
:1022D0002023012E52D1C60650D5CE064ED5106809
:1022E00050680090506940062AD5A16B0868406884
:1022F0000004000CEAD0A68D8642E7D9E085886903
:10230000202818D0D06820F48070D06020684169FF
:1023100021F0010141612068416921F040014161E2
:1023200084F83E3025632068C16821F01001C16047
:10233000A06BFEF71DFCA08DE18D401A81B219E063
:10234000A08DE18D401A81B2E08D0028BED0002919
:10235000BCD0D06820F49070D0602068426922F030
:102360000102426184F83E3025632068C26822F091
:102370001002C2602046FFF737FFF8BD05062BD5D7
:102380000D0629D594F83D002128F6D1A068B0F5B6
:10239000805F01D12069B0B1206A411C21622168AF
:1023A00000784860E08C401E0004000CE084E4D11A
:1023B0002068C16821F08001C1602068C16841F0D7
:1023C0004001C160F8BD206A0088C0F30800506079
:1023D000206A801C2062E5E74006F3D54806F1D567
:1023E000D168204621F04001D16084F83D3000F0F2
:1023F000E5F8F8BD472D000870B5040004D094F846
:102400003D00002510B106E0012070BD84F83C506D
:10241000204600F023F8242084F83D002068C1689D
:1024200021F40051C160204600F0A4FD206801693C
:1024300021F4904101612068416921F02A01416144
:102440002068C16841F40051C1602564202084F8EF
:102450003D0084F83E00002070BD0000F0B585B05E
:1024600000240646009401940294039400682C49C9
:10247000884252D12B48816941F480418161816950
:1024800001F480410491816941F004018161806916
:10249000254D00F0040004904FF4007000900220DD
:1024A00001900320039069462846FEF7E1FC2815B9
:1024B000CDE90004694628460294FEF7D9FC1C4D7C
:1024C0001A488027C5E90004C5E902472C616C6100
:1024D000AC612846EC61FEF765FC08B1FEF746FBEF
:1024E000B5636E621148134D143801C5102091C5B3
:1024F000104845F810496C61AC61EC61FEF752FC84
:1025000008B1FEF733FB75630022052125206E62BA
:10251000FEF7BCFF2520FEF7ABFF05B0F0BD0000C5
:1025200000380140001002400008014058000240FD
:1025300070020020B40200207047000070B504460D
:1025400090F83D00202830D169B362B394F83C0084
:1025500001282AD0012084F83C002162A284E28470
:1025600000252564212084F83D00636B10489862A3
:10257000636B1048D862636B0F481863606B134637
:1025800045632668606B321DFEF73AFC21686FF0E8
:102590004000086084F83C502068416941F08001A7
:1025A0004161002070BD012070BD022070BD00009F
:1025B000A12D0008CF2D0008572D00087047704747
:1025C00070B501220E4ED50329463046FEF745FD73
:1025D0000C4C0A20002162691368596211684A6A2A
:1025E0008242FCD3002229463046FEF736FD606960
:1025F0000068C16841F00201C160206970BD00003F
:10260000000C0140BC0000201FB501250A4C0B4EF8
:102610004FF4C877FFF7D4FF8DF80050CDE90104DF
:10262000002303941A466946306902F05FFB38467E
:1026300002F02CF9EEE70000000080BF000000204F
:102640000149486170470000BC000020FEE70168B6
:102650004A69D24352050FD46FF480624A61002167
:1026600040F8301F202242738173026942F0040255
:10267000026101730120704700207047F8B50446DD
:10268000C06A1E460D461746082807D0012805D007
:1026900010F5803F02D0206B122804D12068016819
:1026A00041F480710160134600224FF00111204671
:1026B000009600F057F840B120680068C00502D5C8
:1026C0004FF4007020640320F8BD2069B0F5804FFE
:1026D0000ED00620216800EAD51040F0F000086115
:1026E00033463A460B49204600F070F878B902E0CC
:1026F00005F0FE0000E0E8B22168086105493346B4
:102700003A46891F204600F061F80028DCD00120FD
:10271000F8BD00000800010070B516460D460446DD
:102720000DE02046FFF793FF08B1012070BD681C43
:1027300005D0FEF797FC801BA84207D835B120686A
:102740004069C0434007ECD4002070BD002044F82D
:10275000300F20216173A073216941F020012161B4
:102760002073E2E72DE9F0471E4690460D460446E9
:10277000C1F30747DDF8209008E0701C06D0FEF793
:1027800071FCA0EB0900B0420FD876B12068012F90
:1027900018D0806925EA00000004000C14D0002144
:1027A0004145EAD00020BDE8F087002044F8300F12
:1027B00020216173A073216941F020012161207300
:1027C0000120F0E74069E5E70121E9E72DE9F0475D
:1027D0009A4691460E46044600254FF02008C1F364
:1027E000074725E020684069C043400514D42068AD
:1027F000016841F40071016021686FF480604861F4
:10280000256384F83D8084F83E50206C40F004003D
:10281000206484F83C501FE0B9F1FF3F08D0FEF778
:1028200021FCA0EB0A0149450CD8B9F1000F09D0F1
:102830002068012F13D0806926EA00000004000CF4
:102840000BD0CFE744F8305F84F80D80A573206982
:1028500040F02000206125730120BDE8F087406929
:10286000EAE770B516460D4604460DE02046FFF730
:10287000EEFE08B1012070BD681C05D0FEF7F2FB2A
:10288000801BA84207D835B120684069C0430006C4
:10289000ECD4002070BD002044F8300F202161737B
:1028A000A073216941F0200121612073E2E700005B
:1028B00002484168491C4160FCE70000000000201C
:1028C00086B001F078F8154C4FF0FF352946E068E6
:1028D00002F004FC0121084601F062F863782278D6
:1028E0000FA1684600F0AAFB684601F0D1F802216A
:1028F000084601F055F8A2780DA1684600F09EFB4D
:10290000684601F0C5F8A0780A28DFD20C21022021
:1029100001F046F809A001F0BBF8D7E7000000205D
:1029200054454D503D25642048554D493D25640092
:1029300044495354414E43453D2564002020000046
:102940002DE9F04786B000242C48009401940294AD
:102950000394816941F010018161816901F01001E6
:102960000491816941F020018161816901F02001B8
:102970000491816941F004018161816901F00401E0
:102980000491816941F0080181618069DFF87080FC
:1029900000F008004FF400550490002229464046FC
:1029A000FEF75BFBDFF85C90002202214846FEF751
:1029B00054FBDFF854A0AF00002239465046FEF722
:1029C0004CFB0126CDE90056022569464046CDE97B
:1029D0000245FEF74DFACDE9005669464846CDE975
:1029E0000245FEF745FACDE9007669465046CDE945
:1029F0000245FEF73DFA06B0BDE8F0870010024040
:102A00000010014000080140000C014010B586B0E4
:102A100000241948059404940094019402941549E3
:102A2000039401604721C0E901144FF6FE71C0E92B
:102A3000031444618461FFF714FA08B172B6FEE72B
:102A4000049404A90C480594FEF7F0FF08B172B68F
:102A5000FEE70120CDE900400294002269460648C5
:102A60000394FFF777F9002801D072B6FEE706B0AD
:102A700010BD0000002C01403801002010B586B0C8
:102A800000241748009401940294039404944FF096
:102A900080410594016041F61F41C0E9011441F6EF
:102AA0003F71C0E9031480218161FEF7F3FF08B193
:102AB00072B6FEE74FF48050009069460848FFF771
:102AC00087F808B172B6FEE7049404A90448059497
:102AD000FEF7ACFF002801D072B6FEE706B010BDCD
:102AE00080010020FEE7FEE71FB50022CDE90012BD
:102AF0000121CDE902126946FEF7BAF91FBD1FB5E3
:102B0000002200910121CDE90112022103916946C1
:102B1000FEF7AEF91FBD000010B5502080F31188FC
:102B2000BFF34F8FBFF36F8F02F03AFC18B1044927
:102B30004FF080500860002080F3118810BD000025
:102B400004ED00E030B58FB028216846FDF761FB49
:102B500014210AA8FDF75DFB01210804CDE900104E
:102B60000024029402250491CDE907504FF4E010AF
:102B700009906846FEF7C8FD08B172B6FEE70F205F
:102B8000CDE90A054FF48060CDE90C4002210AA886
:102B90000E94FEF7ADFC002801D072B6FEE70FB030
:102BA00030BD70470148FFF72DBA00003801002002
:102BB0000148FFF727BA0000800100200148FFF715
:102BC00021BA0000A0090020F0B50268164B174C8E
:102BD000174D4FF08047984205D0B84203D0A0422D
:102BE00001D0A84203D122F070064A6832439842CD
:102BF00005D0B84203D0A04201D0A84203D122F4AC
:102C00004074CA6822434C6922F080022243026069
:102C10008A68C2620A688262984201D109690163C6
:102C200001214161F0BD0000002C01400004004082
:102C30000008004010B501F01F030121046A99400B
:102C40008C430462016A9A401143016210BD10B5C1
:102C5000846842EA032224F47F440A4322438260C8
:102C600010BD826822F070020A4342F007018160C1
:102C7000704710B5036A046A24F001040462846991
:102C800024F0F00444EA021423F00A020A438461A7
:102C9000026210BD70B5046A24F001040462846904
:102CA000056A0F4EB04208D0B0F1804F05D00D4EEE
:102CB000B04202D00C4EB04203D124F003041443BE
:102CC00001E044F001041A0724F0F00444EA12621F
:102CD00025F00A0301F00A0119438261016270BD07
:102CE000002C0140000400400008004010B5036AB9
:102CF00023F0100303628369046A23F4704343EAF8
:102D0000023224F0A00343EA01118261016210BD86
:102D100030B5046A24F0100404628469056A24F45E
:102D2000407444EA022222F470444FF6FF7202EA31
:102D300003322243A02425F0A00304EA0111194321
:102D40008261016230BD10B5406A0021C185C18435
:102D5000FFF74BFA10BD70B5446A2068406994F8DB
:102D60003D10C0F3C0100025212904D118B1E5841D
:102D7000204600F049F82068406994F83E10C0F3FE
:102D80008010222904D118B1E585204600F024F8EE
:102D9000206C40F0100020642046FFF726FA70BD3A
:102DA00010B50146406A0968096889060CD40021FB
:102DB000C18401684A6922F080024A610068C168E2
:102DC00041F04001C16010BDFFF7F8FB10BD10B528
:102DD000406AFFF7F4FB10BD0168CA6822F49072E4
:102DE000CA6001684A6922F001024A61016B012947
:102DF00004D10168CA6822F01002CA60202180F85C
:102E00003E100021016370470168CA6822F0C002C9
:102E1000CA60202180F83D10704700001A4C86B02F
:102E20004FF0FF373A4602A9206902F0BBF89DF83F
:102E3000080088B10128F5D10398FDF72EFB0E4656
:102E4000054601F0A9FBFDF70FFBA0702A463346AB
:102E50000EA000F041FFE5E70498FDF7F1FA2070BD
:102E60000598FDF7EDFA60700598FDF716FB05462D
:102E70000E460498FDF711FBCDE9005602460B46BD
:102E800006A000F029FFCDE700000020444953547C
:102E9000414E43453D2025660A00000054454D50F3
:102EA000455241545552453D202566202020485525
:102EB0004D49444954593D2025660A0008B590F80B
:102EC0003E10222901D0022008BD82684FF48053B1
:102ED0009A4201D1016921B1816A9A421BD04AB15B
:102EE0000AE00268816A5268C2F308020A80816AB5
:102EF000891C08E0026972B10268526802F07F0220
:102F00000A70816A491C8162C18D491E0904090C3D
:102F1000C18503D019E002685268F1E70168CA6808
:102F200022F02002CA600168CA6822F48072CA6076
:102F300001684A6922F001024A61202180F83E10AE
:102F4000016B012903D0FFF7F7FA002008BD00212B
:102F500001630168CA6822F01002CA6001680A6849
:102F6000D20602D50A6849680091818DFFF73CF9C5
:102F7000EBE7000070B5044600680169E26821F4DF
:102F80004051114301612169A06808436169084308
:102F90002168CA6841F20C639A430243CA60206800
:102FA0004169A26921F44071114341611E492068C1
:102FB000884202D1FEF762FB01E0FEF74FFB00EB17
:102FC000C00101EB0012606864218000B2FBF0F3E5
:102FD000B3FBF1F36FF018067343B2FBF0F5B2FBED
:102FE000F0F605EB8305322303EB0515B5FBF1F590
:102FF000B6FBF1F605F0F00505EB0615B2FBF0F6B1
:10300000B2FBF0F0B0FBF1F06FF01802504306EBAA
:10301000800003EB0010B0FBF1F0216800F00F001E
:103020002844886070BD0000003801400148FFF767
:10303000DDB80000C8010020FEE700000FB4084B17
:1030400010B504A902AA039800F000F9044602A9E9
:10305000002000F07EFC204610BC5DF814FB000050
:103060005339000837B514460846064B6A462146D0
:1030700000F0ECF804466946002000F06AFC2046A7
:103080003EBD0000533900080907090E002804DB83
:1030900000F1E02080F80014704700F00F0000F10C
:1030A000E02080F8141D704702E008C8121F08C114
:1030B000002AFAD170477047002001E001C1121FB9
:1030C000002AFBD1704700002DE9FF5F82B000218C
:1030D000DDE90430020DDDF840B0034318D044F6BA
:1030E0001050A2F2FF3242431514119801281FD04C
:1030F000A5EB0B00401C5FEA000A4FF000064E4FA4
:10310000DFF83891B046504615D5CAF1000413E0F7
:10311000119801244AA3012801D16FEA0B010298FA
:10312000119AC0E90031C0E9024206B0BDE8F09F43
:10313000CBF10000DFE704460021404A491842EB8A
:103140000450CDE9001012E0E00707D032463B46BC
:1031500040464946FDF76FF88046894632463B4671
:1031600010461946FDF767F806460F466410002C16
:10317000EAD1DDE90401DDE90023BAF1000F06DA46
:10318000FDF759F842464B46FDF755F805E0FDF7C7
:10319000C4F842464B46FDF7C0F804460E460022EE
:1031A000284BFDF79FFB03D84FF0FF30014607E0A7
:1031B0000022254B20463146FDF779FAFDF762FBE8
:1031C000102409E0002C0ADB0A220023FDF7AAF9EB
:1031D000039B30321A55641E50EA0102F2D1641C7E
:1031E000039AC4F111031444119A012A03D0012255
:1031F00008430DD10AE0084304D000204FF0110B22
:10320000119072E7A3EB0B056D1E0DE05B4504DD2D
:103210004FF0000205F1010504E003DA4FF000026F
:10322000A5F10105002AECD002981199C0E90231FC
:10323000C0E9004579E70000000014400000F03FBD
:10324000300000000000F0430000E03F2DE9FF4F98
:1032500095B09A46884606460025EEE1252877D1A6
:1032600000242746F94A0121039400E0044316F89C
:10327000013F203B01FA03F01042F7D130782A28B1
:1032800011D06FF02F033078A0F13002092A16D840
:10329000039A44F0020402EB820203EB4202104460
:1032A000761C0390EFE758F8042B0392002A03DA08
:1032B000504244F40054039044F00204761C3078E9
:1032C0002E2816D116F8010F44F004042A280DD038
:1032D0006FF02F023078A0F13003092B09D807EBEB
:1032E000870302EB4303C718761CF3E758F8047B07
:1032F000761C30786C280FD006DC4C2817D0682854
:103300000DD06A2814D104E0742810D07A280FD187
:103310000DE044F400140AE044F4801401E044F4A5
:1033200040147278824202D104F58014761C761C17
:10333000307866280BD013DC582877D009DC0028B9
:1033400075D04528F6D04628F4D047281AD193E105
:1033500018E0632835D0642879D0652812D18BE134
:10336000702873D008DC6728F1D069286FD06E28E8
:103370000DD06F2806D1ACE073282CD0752874D0FE
:10338000782853D05246179990476D1C54E1C4F3E6
:103390000250022809D003280DD0D8F800100428C4
:1033A0000DD00D6008F1040846E1D8F80010EA17C6
:1033B000C1E90052F6E7D8F800100D80F2E70D7071
:1033C000F0E718F8041B8DF8001000208DF80100BC
:1033D000EB46012003E058F804BB4FF0FF306107D3
:1033E0004FF0000102D40DE009F101018946B94214
:1033F0000FDA8145F8DB1BF809100029F4D108E049
:1034000009F1010189468142FADB1BF80910002904
:10341000F6D103985346A0EB090721463846179A80
:1034200000F080FA284400EB090507E044E008E1D9
:103430000DE01BF8010B524617999047B9F10109AD
:10344000F7D2534621463846179AF2E039E00A216E
:10345000C4F302524FF0000B0091022A06D058F834
:10346000040BC117032A09D00AE023E008F1070082
:1034700020F00702F2E80201904605E000B2C11711
:10348000042A01D140B2C117002906DA0A460021F8
:10349000404261EB02012D2202E0220504D52B22DD
:1034A0008DF80420012203E0E20701D02022F7E793
:1034B000914657E00A2100E010214FF0000B0091E7
:1034C0000BE010214FF0000B44F00404082700919A
:1034D00003E008204FF0000B0090C4F30252022AD0
:1034E00005D058F8040B0021032A08D008E008F1A1
:1034F000070020F00702F2E80201904603E080B2E4
:10350000042A00D1C0B24FF0000922072AD5327830
:10351000702A07D0DDF800C08CF0100C5CEA0B0CB0
:1035200005D00EE040228DF80420012208E050EA88
:10353000010306D030238DF804308DF805200222D7
:103540009146009B83F0080353EA0B030AD150EA2B
:10355000010201D1620705D530228DF804204FF019
:1035600001097F1E3278582A04D039A20C920CAA85
:1035700002920BE03BA2F9E75B46009AFCF7D2FF10
:103580000C9B9B5C029A521E0292137050EA01023D
:10359000F2D1029804A9081A00F1200B600702D5A5
:1035A00024F4803400E001275F4502DDA7EB0B0027
:1035B00000E0002000EB0B01009003984944401A02
:1035C0000390E00306D453462146179A039800F06F
:1035D000A9F90544002706E001A85246C05D1799E5
:1035E00090476D1C7F1C4F45F6DBE0030CD553461E
:1035F0002146179A039800F095F9054404E030201D
:103600005246179990476D1C0099481E009000295A
:10361000F5DC08E00298029952460078491C0291B4
:10362000179990476D1CBBF10001ABF1010BF1DC68
:103630005BE100F065F90544761C307800287FF4E2
:103640000DAE19B02846BDE8F08F00000928010032
:103650003031323334353637383961626364656608
:1036600000000000303132333435363738394142CA
:103670004344454600000000600700D4062708F1D7
:10368000070020F00700F0E80223804603F0004C1A
:103690005FEA0C0001D097A009E0200501D596A0B3
:1036A00005E0E00701D095A001E0AFF24C001390D7
:1036B000307823F0004365280CD006DC452809D07B
:1036C00046281DD047287FD13BE0662818D06728C0
:1036D0007AD136E00021112F01DB112000E0781CA7
:1036E000CDE9000104A90CA8FFF7EEFCDDE90D010E
:1036F0000C9A4FF0000B07F10109109200914EE077
:103700004FF000400097CDE9011004A90CA8FFF785
:10371000DBFCDDE90D020C9B0F994FF0000B91468D
:103720001093009211B9791C00EB0109B7EB090065
:1037300003D4C0F1FF3B07F10109A9EB0700019099
:1037400042E0012F00DA01270021112F01DD1120B5
:1037500000E03846CDE9000104A90CA8FFF7B4FC4D
:10376000DDE90D010C9A00914FF0000BB946109263
:1037700021070FD4009A4A4503DA914601E0A9F1E6
:103780000109B9F1010F05DD109AA9F10101515CA0
:103790003029F4D0B84202DA10F1040F03DA012123
:1037A000CDE9011010E0002803DC8344A9EB0001FF
:1037B00002E0411C494500DD8946A0EB0B00401C9E
:1037C00001904FF000400290200705D40198484531
:1037D00002DB4FF0FF30019000208DF84B00029883
:1037E0000DF14B07B0F1004F25D002200C902B209B
:1037F0000D90029800280CDA404202902D200D9086
:1038000007E00A210298FCF777FE3031029007F8B2
:10381000011D0C99481E0C900029F2DC029800282A
:10382000EFD1791E0D980870307800F0200040F03C
:10383000450007F8020D11A8C01BC01D0290139887
:10384000007800B1012000EB0901019801EBE07163
:10385000029801440398401A401E0390E00306D4E6
:1038600053462146179A039800F05CF805441398D4
:10387000007818B15246179990476D1CE00323D584
:1038800053462146179A039800F04CF805441BE074
:10389000BBF1000F07DB0098584504DD109817991D
:1038A00010F80B0001E0179930205246904701981C
:1038B0000BF1010B401E05F10105019004D12E20F2
:1038C0005246179990476D1CB9F10001A9F1010901
:1038D000DEDC05E017F8010B5246179990476D1C86
:1038E0000299481E02900029F4DC53462146179A9B
:1038F00003989EE62D0000002B0000002000000031
:103900002DE9F041044600251E461746880404D4DC
:1039100005E039462020B0476D1C641EF9D52846C5
:10392000BDE8F0812DE9F041044600251E46904691
:10393000C80301D5302700E02027880404D505E01E
:1039400041463846B0476D1C641EF9D52846BDE88F
:10395000F0810A68531C0B6010707047F0B5094A7B
:1039600000210E464FF47A75136808E01C682A4659
:1039700066621C68676A9742FCD3491C89B281421F
:10398000F4D3F0BDB800002004490022C9680B68D8
:103990005A6209684A6A8242FCD37047D400002008
:1039A000012805D04031C8B240F0800000F030B8A6
:1039B0008031C8B2FAE710B5332000F029F8322080
:1039C00000F026F83220FFF7C9FF282000F020F889
:1039D0003220FFF7C3FF012000F01AF83220FFF772
:1039E000BDFF062000F014F83220FFF7B7FF0C20CF
:1039F00000F00EF83220FFF7B1FF022000F008F8C7
:103A00003220FFF7ABFFBDE810408020AFF300800D
:103A10001CB500F0F00141F00C028DF8042041F0DB
:103A2000080100018DF8051040F00C018DF806101A
:103A300040F008008DF8070064200090042301AADC
:103A40004E210248FDF7D8FB1CBD0000E400002019
:103A50001CB500F0F00141F00D028DF8042041F09A
:103A6000090100018DF8051040F00D018DF80610D8
:103A700040F009008DF8070064200090042301AA9B
:103A80004E210248FDF7B8FB1CBD0000E4000020F9
:103A900010B5044602E0641CFFF7DAFF2078002826
:103AA000F9D110BD0149086070470000B80000203E
:103AB0001CB5FDF76DFCFFF745F8FEF741FF6348C5
:103AC000416941F0010141614069002200F00100BB
:103AD000009005210E20FDF7D9FC0E20FDF7C8FC53
:103AE000002205210F20FDF7D1FC0F20FDF7C0FCBF
:103AF00058485749002401605749C0E901144FF460
:103B00008041C0E9034144618461C4610462FDF7FE
:103B1000AFFA08B172B6FEE74E485049E430016092
:103B20004FF4E131C0E901140C21C460C0E9044143
:103B30008461C461FEF760FC08B172B6FEE7FEF76F
:103B400065FFFEF79BFF43485430FFF7ABFF41484A
:103B50005430FEF775FD3F4800215430FEF7E2F97E
:103B60003C485430FCF7BAFF3A485430FDF7DCFFCC
:103B70006846FCF751FF3A4DDDE90001C5E90B014C
:103B8000A9690420CDE900010023802235A136482F
:103B900001F09AFBE9690320CDE9000100238022AE
:103BA00032A1344801F090FB296A0220CDE90001DE
:103BB000002380222DA1304801F086FB696A012094
:103BC000CDE90001002380222CA12E4801F07CFBCE
:103BD000A86A0023CDE90040802224A12A4801F0F0
:103BE00073FB03220021012000F0E4FFA860032200
:103BF0000021012000F0DEFFE860A96821B318B3BE
:103C000022A000BF00F068F800221021012000F07F
:103C1000D1FF286125480090002301224FF47A71DA
:103C200023A001F053FD686101F0B4FB024600944B
:103C300000230121686901F093FD06489C30FDF7DF
:103C40009BFF00F0DFFEFEE71CA0DBE70010024058
:103C500000540040E4000020A0860100003801402C
:103C6000000000204C434400C1280008444854325E
:103C7000320000001D2E0008950A000848435352E8
:103C80003034000009260008B1280008437265613D
:103C900074652053656D6170686F7265205375633C
:103CA0006365737366756C6C790A0000F94A0008E5
:103CB000536F667454696D6572000000556E6162E1
:103CC0006C65206372656174652053656D61706811
:103CD0006F72650A000000000FB40D4810B500BFF8
:103CE00090F83D102029FBD1094803AA44300299DD
:103CF000FFF7B8F906484430FCF796FA044982B257
:103D000044310348FEF71AFC10BC5DF814FB0000B8
:103D1000C80100202DE9F041184C0F4605466669A0
:103D20002068001D00F082FC38B9206890F82C1043
:103D300001208840A1698143A161681C07D137B186
:103D40002168BDE8F0410E48091D00F0BFBC2068A5
:103D50003544B5424560216805D2A068BDE8F04110
:103D6000091D00F09BBC6068091D00F097FC206BEA
:103D7000854200D22563BDE8F081000044000020A8
:103D8000040B00202DE9F041054600F0ABFC2E4C61
:103D90002069401C206120682C4F10B1E06940B3BD
:103DA0002DE025602069012829D1002606EB860038
:103DB00007EB800000F064FC761C072EF6D3234846
:103DC0008C3000F05DFC2148A03000F059FC1F4809
:103DD000B43000F055FC1D48C83000F051FC1B48C1
:103DE000DC3000F04DFC19488C3060601430A0606D
:103DF00005E02068E96AC06A884200D82560E06A68
:103E0000401CE062E96A0120A26988401043A06179
:103E100001EB810007EB8000291D00F057FC00F04A
:103E200081FCE06900280CD02068E96AC06A8842F9
:103E300007D207494FF080500860BFF34F8FBFF3A0
:103E40006F8FBDE8F081000044000020280A0020A8
:103E500004ED00E038B500F045FC104CA068C8B98E
:103E60000F4800F00DFC0E48143000F009FC0C481F
:103E70002060143060600A4B00202833009003F16A
:103E800048020C210A2000F0B9FEA06010B105A183
:103E900000F0C6FCBDE8384000F044BC80000020C3
:103EA000180B0020546D72510000000030B4026CF9
:103EB0000B46002A0BD0C1681144C1604468A1427E
:103EC00001D30168C16030BC1846FCF789B930BC29
:103ED00070472DE9F041856B174604460026026CB9
:103EE00082B1C7B1E068FCF77BF9E168206C091A80
:103EF000E1602268914202D26168081AE060022FF4
:103F000016D017E02068A8B9606801F0ADFA06463F
:103F1000002060600EE0A068FCF762F9216CA068E8
:103F20000844A0606168884204D32068A06001E072
:103F300005B16D1E6D1CA5633046BDE8F08110B55E
:103F4000044690F8510058B101280CD002280FD037
:103F5000502080F31188BFF34F8FBFF36F8FFEE7C0
:103F6000206B00F0F3FB2046BDE8104000F0EEBBF4
:103F700010BD000010484FF44061420706D0C01D3C
:103F80000D4920F00700411AC1F540610B4A00239A
:103F90000144C2E900030839103A21F00701116019
:103FA0004B600B600B1AC0E9001393604FF00040A8
:103FB0005360D06070470000000C0020A400002077
:103FC000144E154CA6F1C8074FF08058DFF84C90FE
:103FD00012E000BF00F086FBF068C568281D00F005
:103FE00025FB2069401E2061E068401EE06000F073
:103FF00099FB2846FFF7A3FFE0680028EAD138685C
:104000000128F9D9C9F80080BFF34F8FBFF36F8F34
:10401000F2E70000F00A00204400002004ED00E078
:104020000346009829B10260C0E90F31012100F078
:1040300019BE0060F8E72DE9F0479A46DDE90984EA
:1040400081466FF00303206B03EB82021044089D4E
:1040500020F00706700707D0502080F31188BFF3C7
:104060004F8FBFF36F8FFEE723180A5C83F834206D
:104070000A5C12B1401C1028F6D3002784F8437064
:10408000072D00D30625E562C4E91157201D00F075
:1040900002FB04F1180000F0FEFA2461C5F10700EC
:1040A0006462A061E76484F8507052464946304625
:1040B00000F060FA2060B8F1000F01D0C8F80040AD
:1040C000BDE8F0872DE9F0471E46DDE90894174664
:1040D0000D0080460ED0002C14D0FFF7BBFEC4F8B4
:1040E0000080C4E90657C4E90869201DBDE8F0470F
:1040F00000F0D1BA502080F31188BFF34F8FBFF387
:104100006F8FFEE7BDE8F08730B5114900E011463A
:104110000A688242FBD34B685C18844203D1406832
:1041200018444860084643681C18944209D1084C5A
:10413000103C2468A24209D052681A4442600A68BE
:1041400012680260814200D0086030BD0460F9E767
:10415000A400002070B5002441600B4D0061914225
:1041600006D8D11A8269914206D2011D686807E01B
:104170009A4203D2994201D3012403E0011D286829
:1041800000F08CFA204670BD8000002010B5044677
:1041900000F0A8FAA06B28B15FF0000400F0C2FAAA
:1041A000204610BD0124F9E730B587B02C4D4EE014
:1041B000049800284BDB069C606910B1201D00F0BC
:1041C00035FA02A800F0B8F8024604980A283ED250
:1041D000DFE800F00505053D263705053D26059875
:1041E000A169034601442046FFF7B4FF00B3616AAA
:1041F00020468847E069012829D1002000900598D1
:10420000A169002342181946204601F0A9FA78B99D
:10421000502080F31188BFF34F8FBFF36F8FFEE7FD
:104220000598A06128B1811813462046FFF792FF38
:104230000DE0502080F31188BFF34F8FBFF36F8FD5
:10424000FEE794F8280010B9204600F07FFA00221B
:1042500004A9A86800F0A6FE0028A9D107B030BDC7
:10426000800000202DE9FC410F46054600F00EFCC1
:1042700001A800F061F80446019818B101F0C4F9F2
:10428000BDE8FC81224EAFB170680068A8B300277A
:10429000291B3A46B06800F0D7FA01F0B5F90028BA
:1042A000EED11C494FF080500860BFF34F8FBFF331
:1042B0006F8FE5E7A542EBD801F0A6F930682746F5
:1042C000C068C468201D00F0B1F9E069012810D170
:1042D000A0692B4641193A462046FFF73BFF40B103
:1042E00000200346014600902A46204601F038FA95
:1042F00020B1616A20468847C2E707E0502080F37A
:104300001188BFF34F8FBFF36F8FFEE70127BFE721
:104310008000002004ED00E006484168096829B1EA
:104320004168C968C9684968016370474FF0FF3147
:10433000FAE700004400002070B5054601F02AF8B5
:10434000064E04463069844203D200F009F8012089
:1043500000E0002028602046346170BD800000200D
:10436000F8B5194D1FE0C068C4680668201D00F04C
:104370005DF9616A20468847E069012813D1A06988
:104380003044B04206D924616060211D286800F0E5
:1043900085F908E000200346014600903246204699
:1043A00001F0DEF938B1286801680029DBD16968BD
:1043B000C5E90010F8BD502080F31188BFF34F8F7E
:1043C000BFF36F8FFEE700008000002008484068C0
:1043D000401C4FF0500080F3118804D0BFF34F8F82
:1043E000BFF36F8FFEE7BFF34F8FBFF36F8FFEE713
:1043F000AC000020074C2068016841B1C068002172
:10440000D0F80000FFF72EFFFFF7CEFEF3E7012103
:104410000020F7E7800000202DE9F041044600F07D
:1044200061F994F9455004F1240609E0606A48B145
:10443000304601F0AFF808B100F056FA6D1E6DB2CB
:10444000002DF3DC4FF0FF3684F8456000F06AF988
:1044500000F048F994F9445004F1100709E020698C
:1044600048B1384601F096F808B100F03DFA6D1EEB
:104470006DB2002DF3DC84F84460BDE8F04100F03B
:1044800051B900002DE9F0410546002700F0FEFA81
:10449000314E306808B9FFF76DFDF06805424BD129
:1044A000C5B3083568070ED005F00700C0F1080055
:1044B0000544680707D0502080F31188BFF34F8F61
:1044C000BFF36F8FFEE72DB37068854234D8224862
:1044D000103001460C6801E020460C466168A94294
:1044E00002D221680029F7D131688C4224D00768B4
:1044F0002168016060680837411B10290FD96019D5
:10450000420708D0502080F31188BFF34F8FBFF3CC
:104510006F8FFEE710E041606560FFF7F5FD6168B1
:104520007068401A7060B268904200D2B060F06863
:1045300001430020C4E9000101F066F8780707D0C4
:10454000502080F31188BFF34F8FBFF36F8FFEE7CA
:104550003846BDE8F0810000940000200449086856
:1045600018B10868826C521C8264086870470000A9
:104570004400002010B5031F4FF080741C601B1F07
:1045800021F001011960191F024B0B6014394038EA
:104590000A6010BDCD4300082DE9F04D07460E46D8
:1045A000FCF72CF904460D463A463346FCF723F94E
:1045B000DFF86CA0DFF86CB01B4B0746884616F09E
:1045C000004F4FF000020AD0FCF774F90AD900221C
:1045D0005B4638464146FCF785F91BD212E0FCF7F2
:1045E00069F908D20022534620462946FCF700F913
:1045F00004460D460EE000225B4638464146FCF775
:1046000071F907D80022534620462946FCF74FF897
:1046100004460D463146204665F31E01BDE8F08D87
:104620000000F03F0000E03F0000E0BFD0E90132B1
:1046300001699A60D0E901235A604A68824201D137
:1046400082684A60002202610868401E08600868AB
:1046500070470000034B036003F1540008608020A2
:1046600010607047F8020020044B036003F154000F
:1046700008604FF480701060704700004C05002007
:1046800000F108014FF0FF32C0E90112C160016181
:1046900000210160704700210161704730B50B684F
:1046A0005A1C02D000F1080202E0026904E022462E
:1046B000546825689D42FAD953684B6099608A60B6
:1046C000516008610168491C016030BD42684A6060
:1046D00093688B6093685960916008610168491C18
:1046E00001607047502080F31188BFF34F8FBFF3F4
:1046F0006F8F0A494868401C486001280CD108485F
:10470000006810F0FF0F07D0502080F31188BFF32E
:104710004F8FBFF36F8FFEE770470000AC000020A3
:1047200004ED00E00849486828B1401E486001D106
:1047300080F311887047502080F31188BFF34F8FAA
:10474000BFF36F8FFEE70000AC00002070B50028BB
:1047500027D0144DA0F108046168E868014207D130
:10476000502080F31188BFF34F8FBFF36F8FFEE7A8
:1047700022683AB1502080F31188BFF34F8FBFF306
:104780006F8FFEE78143616000F080F960686968BF
:10479000084468602046FFF7B7FCBDE8704000F0B1
:1047A00033BF70BD940000204FF0E0200021016174
:1047B000816105494FF47A720968B1FBF2F1491E33
:1047C00041610721016170474000002010B5FBF7EF
:1047D000E1FC114910280ED300F1E02090F8F0031D
:1047E0000A78904207D2502080F31188BFF34F8F90
:1047F000BFF36F8FFEE709480068896800F4E06046
:10480000884207D9502080F31188BFF34F8FBFF340
:104810006F8FFEE710BD0000AC0000200CED00E043
:1048200010B5084B002200BF53F832401CB1521C97
:10483000082AF9D310BD43F8321003EBC2014860D7
:1048400010BD0000E809002070B515460E4604466C
:10485000FFF748FF94F944100020491C01D184F867
:10486000440094F94510491C01D184F84500FFF734
:1048700059FFA06B28B92A46314604F1240000F004
:1048800051F82046BDE87040FFF7C6BD10B50200E4
:1048900014D00F48806B38B1502080F31188BFF3DB
:1048A0004F8FBFF36F8FFEE700F0F0F80021104646
:1048B000FFF730FA00F0A8FE002807D105494FF0B5
:1048C00080500860BFF34F8FBFF36F8F10BD0000A3
:1048D0004400002004ED00E002498A6A0260496950
:1048E0004160704744000020014901204862704740
:1048F0004400002010B50C4650B109490968183130
:10490000FFF7CCFE2046BDE810400121FFF702BAB8
:10491000502080F31188BFF34F8FBFF36F8FFEE7F6
:104920004400002070B514460D4668B10A49096874
:104930001831FFF7CBFE0CB14FF0FF35214628466A
:10494000BDE87040FFF7E6B9502080F31188BFF34F
:104950004F8FBFF36F8FFEE74400002070B5040057
:104960004BD0A26CA2B1606C884200D30146E06AD1
:10497000884242D0012A40D1204D2A6894420FD16A
:10498000502080F31188BFF34F8FBFF36F8FFEE786
:10499000502080F31188BFF34F8FBFF36F8FFEE776
:1049A000E162A269002A02DBC1F10701A161144E94
:1049B00000EB8000616906EB800081421DD1201D63
:1049C000FFF734FE012150B9E06A00EB800256F88F
:1049D000222022B9AA6901FA00F08243AA61E06AA2
:1049E000AA6981401143A96100EB800006EB8000B9
:1049F000211DBDE87040FFF769BE70BD4400002076
:104A0000280A002030B587B00024039405AA04A921
:104A100003A80494FFF71EFEDDE903010094CDE92D
:104A20000110002315A11748059A00F07AFC164DD5
:104A3000002868631FD000F063FE012809D0401CE5
:104A400019D1502080F31188BFF34F8FBFF36F8FC0
:104A5000FEE7502080F31188BFF34F8FBFF36F8FB5
:104A60004FF0FF3028630120E8616C6107B0BDE8BA
:104A7000304000F04BB807B030BD000049444C4511
:104A800000000000C13F0008440000200248816B84
:104A9000491C816370470000440000201448816B6A
:104AA00011B1012141627047002141628169B1FA6F
:104AB00081F1C1F11F0101EB81020E4951F8223051
:104AC0006BB101EB820101F108034A6852684A6048
:104AD0009A4201D152684A60D16801607047502003
:104AE00080F31188BFF34F8FBFF36F8FFEE7000095
:104AF00044000020280A0020034800231A461946D3
:104B0000C06800F0F3B80000000000201CB5264982
:104B100008780190FF20087008788DF800009DF853
:104B200000009DF8002000F0F000904207D05020D7
:104B300080F31188BFF34F8FBFF36F8FFEE79DF8AF
:104B400000001A4B00F0500018700720986005E034
:104B50009DF8002052008DF80020401E9DF8002096
:104B60001206F5D49860032807D0502080F31188EE
:104B7000BFF34F8FBFF36F8FFEE74FF44070986025
:104B8000019808700A48016841F4700101600168E9
:104B900041F070410160FFF707FE00205860FBF70D
:104BA000C3FA00201CBD000000E400E0AC000020BF
:104BB00020ED00E0F8B517460E46050014D0DEB132
:104BC00005FB06F04830FFF75DFC04000AD000202A
:104BD00084F8460004F148023B46314628460094DA
:104BE000FFF71EFA2046F8BD502080F31188BFF36E
:104BF0004F8FBFF36F8FFEE70020E3E738B5049DCA
:104C000018B153B1CAB181B120E0502080F31188AE
:104C1000BFF34F8FBFF36F8FFEE7502080F31188F3
:104C2000BFF34F8FBFF36F8FFEE7502080F31188E3
:104C3000BFF34F8FBFF36F8FFEE739B1502080F382
:104C40001188BFF34F8FBFF36F8FFEE748241C46D8
:104C5000012384F846302B460094FFF7E1F9204603
:104C600038BD000070B50D46040025D0FFF73AFDB1
:104C7000D4E90F20216802FB001161600021A163CB
:104C80002168A1600A46D4E90F01401E00FB012102
:104C9000E16021464FF0FF3001F8440F487004F105
:104CA00010008DB1FFF7ECFC04F12400FFF7E8FCE5
:104CB000FFF738FD012070BD502080F31188BFF34D
:104CC0004F8FBFF36F8FFEE721690029F0D000F00E
:104CD00061FC0028ECD004494FF080500860BFF31D
:104CE0004F8FBFF36F8FE3E704ED00E02DE9FF473F
:104CF00082B01D468A464FF00008040003D0BAF186
:104D0000000F08D011E0502080F31188BFF34F8FBF
:104D1000BFF36F8FFEE7206C38B1502080F311880D
:104D2000BFF34F8FBFF36F8FFEE7022D0AD1E06B09
:104D3000012807D0502080F31188BFF34F8FBFF3B5
:104D40006F8FFEE700F018FB3F4F4FF000094FF068
:104D5000805648B9049838B1502080F31188BFF3C9
:104D60004F8FBFF36F8FFEE7FFF7BCFCA06BE16BCB
:104D7000884207D3022D05D00498D0B1B8F1000FB6
:104D80001AD01EE02A4651462046FFF7A2F8616A73
:104D900019B104F1240000F0FDFB20B13E60BFF327
:104DA0004F8FBFF36F8FFFF7BDFC012006B0BDE84A
:104DB000F087FFF7B7FC22E06846FFF78DFD4FF064
:104DC0000108FFF7AFFCFFF761FEFFF78BFC94F9DA
:104DD0004400401C01D184F8449094F94500401CE3
:104DE00001D184F84590FFF79DFC04A9684600F0C6
:104DF00031FA30B12046FFF70FFB00F005FC002030
:104E0000D4E7FFF76FFCA06BE16B884213D1FFF78B
:104E100089FC04F110000499FFF76CFD2046FFF7B0
:104E2000FBFA00F0F1FB00289ED13E60BFF34F8FEC
:104E3000BFF36F8F98E7FFF775FC2046FFF7ECFA9A
:104E400000F0E2FB90E7000004ED00E02DE9F04700
:104E50001F4690468946040003D0B9F1000F08D0E0
:104E600011E0502080F31188BFF34F8FBFF36F8F95
:104E7000FEE7206C38B1502080F31188BFF34F8FCC
:104E8000BFF36F8FFEE7022F0AD1E06B012807D036
:104E9000502080F31188BFF34F8FBFF36F8FFEE771
:104EA000FFF794FC5020EFF3118680F31188BFF3D5
:104EB0004F8FBFF36F8FA06BE16B884206D3022F39
:104EC00004D0002086F31188BDE8F08794F945509E
:104ED0003A4649462046FEF7FCFF681C04D06D1C8C
:104EE00084F845500120EDE7606A0028FAD004F10B
:104EF000240000F04FFB0028F4D0B8F1000FF1D0EF
:104F00000121C8F80010EDE770B50E46040009D085
:104F1000206C78B1502080F31188BFF34F8FBFF31E
:104F20006F8FFEE7502080F31188BFF34F8FBFF3E0
:104F30006F8FFEE7206848B9606838B1502080F371
:104F40001188BFF34F8FBFF36F8FFEE7FFF73EFC73
:104F50005020EFF3118580F31188BFF34F8FBFF31B
:104F60006F8FA16BE06B884218D994F94500491CFA
:104F7000A163411C04D0401C84F8450001200EE0D0
:104F8000606A0028FAD004F1240000F003FB002836
:104F9000F4D0002EF2D001203060EFE7002085F33E
:104FA000118870BD2DE9F747002683B08A460400BA
:104FB00003D0BAF1000F08D011E0502080F311881F
:104FC000BFF34F8FBFF36F8FFEE7206C38B15020D7
:104FD00080F31188BFF34F8FBFF36F8FFEE700F0B0
:104FE000CBF9DFF8F4804FF000094FF0805748B953
:104FF000059838B1502080F31188BFF34F8FBFF36D
:105000006F8FFEE7FFF76EFBA56BC5B151462046DB
:10501000FEF74CFF6D1EA563206950B104F110002E
:1050200000F0B8FA28B1C8F80070BFF34F8FBFF393
:105030006F8FFFF777FB012006B0BDE8F08705987A
:1050400008B11EB106E0FFF76DFB27E06846FFF7E9
:1050500043FC0126FFF766FBFFF718FDFFF742FB55
:1050600094F94400401C01D184F8449094F945001F
:10507000401C01D184F84590FFF754FB05A9684610
:1050800000F0E8F8002820460AD0FFF7C5F900F044
:10509000BBFA2046FFF77AF80028B3D00020CBE710
:1050A000FFF774F890B104F124000599FFF722FC92
:1050B0002046FFF7B1F900F0A7FA0028A2D1C8F8FE
:1050C0000070BFF34F8FBFF36F8F9BE72046FFF752
:1050D000A3F900F099FA95E704ED00E02DE9F34318
:1050E000002683B00400354609D0206C78B15020EA
:1050F00080F31188BFF34F8FBFF36F8FFEE750200F
:1051000080F31188BFF34F8FBFF36F8FFEE700F07E
:1051100033F9DFF83C814FF000094FF0805748B970
:10512000049838B1502080F31188BFF34F8FBFF33C
:105130006F8FFEE7FFF7D6FAA06BC8B1401EA063E1
:10514000206810B9FFF70AFA6060206950B104F1D5
:10515000100000F01FFA28B1C8F80070BFF34F8F9D
:10516000BFF36F8FFFF7DEFA012005B0BDE8F083D3
:10517000049808B166B10FE03DB1502080F311886A
:10518000BFF34F8FBFF36F8FFEE7FFF7CBFA5DE002
:105190006846FFF7A1FB0126FFF7C4FAFFF776FC8C
:1051A000FFF7A0FA94F94400401C01D184F8449020
:1051B00094F94500401C01D184F84590FFF7B2FAFC
:1051C00004A9684600F046F80028204612D0FFF7F0
:1051D00023F900F019FA2046FEF7D8FF0028A9D0DD
:1051E0009DB3FFF77FFA606A50B3206B0068C0F18F
:1051F000070126E0FEF7CAFFE0B1206838B9FFF7E3
:1052000071FA606800F07CF90546FFF78BFA04F14B
:1052100024000499FFF76EFB2046FFF7FDF800F02D
:10522000F3F9002886D1C8F80070BFF34F8FBFF3A1
:105230006F8F7FE72046FFF7EFF800F0E5F979E799
:1052400000216068FFF78AFB9FE7FFE700208CE7FB
:1052500004ED00E02DE9F0410C46050011D0C4B189
:10526000FFF740FA174B5A696E682068911B471C7C
:1052700017D02F689B6A9F4219D0964217D80124F5
:1052800010E0502080F31188BFF34F8FBFF36F8F72
:10529000FEE7502080F31188BFF34F8FBFF36F8F6D
:1052A000FEE70024FFF73EFA2046BDE8F081884281
:1052B00005D9401A20602846FFF70EFBF1E70020D1
:1052C0002060DCE7440000202DE9FF5F8346DDE934
:1052D0000E87994616468A469000FFF7D3F80500D8
:1052E0001CD05420FFF7CEF8040014D00020256312
:1052F00084F85100CDE90240CDE900874B463246A3
:1053000051465846FEF797FE2046FEF73BFD01202A
:1053100004B0BDE8F09F2846FFF718FA4FF0FF30C1
:10532000F6E7F0B585B0DDE90B640A9DA6B1DCB106
:10533000542700972663022684F85160002604AFA4
:10534000CDE90246CDE90057FEF775FE2046FEF78F
:1053500019FD049805B0F0BD502080F31188BFF30B
:105360004F8FBFF36F8FFEE7502080F31188BFF39C
:105370004F8FBFF36F8FFEE70548C16919B1806B8E
:1053800018B10020704701207047022070470000CC
:10539000440000200148406970470000440000209C
:1053A0002DE9F0412E4C0027A06B40B1206A401C33
:1053B0002062606A00B101273846BDE8F081666965
:1053C000761C666113D16068006838B1502080F3A4
:1053D0001188BFF34F8FBFF36F8FFEE76068A1683E
:1053E0006160A060A06A401CA062FEF795FF206B80
:1053F000DFF87080864209D36068006880B1606819
:10540000C068C568686886420DD220632068C06A9B
:1054100000EB800158F821000128CAD90127C8E70C
:105420004FF0FF30F1E7281DFFF700F9A86A18B127
:1054300005F11800FFF7FAF8E86A0121A269814036
:105440001143A16100EB800108EB8100291DFFF7EA
:105450003DF9E86A2168C96A8842CDD30127CBE7C4
:1054600044000020280A002070B504004FF000011D
:1054700040D0214D2868844207D0502080F3118805
:10548000BFF34F8FBFF36F8FFEE7A06C38B1401EA4
:10549000A064636CE26A9A422CD040B12AE05020AA
:1054A00080F31188BFF34F8FBFF36F8FFEE7201D8E
:1054B000FFF7BCF8114A012150B9E06A00EB800304
:1054C00052F8233023B9AB6901FA00F08343AB6192
:1054D000606CE062C0F10700A061E06AAB698140E6
:1054E0001943A96100EB800002EB8000211DFFF74A
:1054F000EDF80121084670BD44000020280A002074
:1055000070B504004FF0000038D0204DE16A2A68E1
:10551000D26A914233D2A069002804DB2868C06AAD
:10552000C0F10700A0611A4E01EB8101606906EB32
:10553000810188421ED1201DFFF778F8012150B962
:10554000E06A00EB800256F8222022B9AA6901FA2B
:1055500000F08243AA612868C06AE062AA698140BB
:105560001143A96100EB800006EB8000211DFFF7CD
:10557000ADF802E02868C06AE062012070BD616C8D
:105580002A68D26A9142F8D370BD0000440000201E
:10559000280A00202DE9F041C068C468ACB104F1CC
:1055A00018000746FFF742F8154DA86B0126A0B179
:1055B00039461448FFF78AF8E06A2968C96A8842C0
:1055C0001CD901206E62BDE8F081502080F3118863
:1055D000BFF34F8FBFF36F8FFEE7201DFFF726F855
:1055E000E16AAA6906FA01F01043A86101EB8100A3
:1055F0000449B43901EB8000211DDBE70020E2E71C
:1056000044000020DC0A00202DE9F0472C4D002446
:105610002746A86B38B1FFF765F8A86B401EA86352
:10562000A86B40B146E0502080F31188BFF34F8F44
:10563000BFF36F8FFEE72969224E0120D1B3A6F197
:10564000B40980463068E8B1F068C46804F1180015
:10565000FEF7ECFF201DFEF7E9FFE06AAA6908FAF1
:1056600000F11143A96100EB800109EB8100211DCC
:10567000FFF72CF8E06A2968C96A8842E2D3C5F8C6
:105680002480DFE70CB1FEF747FE2C6A44B14646A2
:10569000FFF786FE00B16E62641EF9D10020286219
:1056A000686A38B10849012738070860BFF34F8F8F
:1056B000BFF36F8FFFF736F83846BDE8F08700007C
:1056C00044000020DC0A002004ED00E02DE9FC4746
:1056D00081461E46174688462C200A9DFEF7D2FEBC
:1056E00004000AD0CDE9005433463A4641464846C4
:1056F000FEF7E8FC002084F828002046BDE8FC877F
:1057000010B586B0FEF7A6FB114CA068B8B100201A
:105710000390049005AA04A903A8FEF7A5FFDDE9FC
:10572000032106208DE8070000230AA10B48059AF3
:10573000FFF7F7FDE06010B106B0012010BD50206A
:1057400080F31188BFF34F8FBFF36F8FFEE7000028
:1057500080000020546D722053766300F5430008EA
:10576000FEB51E4613460200089D4FF0000014D0FF
:10577000124CA768002F0FD0CDE900130292062922
:1057800015DAFFF7F9FD02284FF000030DD00022D3
:105790006946A068FFF7AAFAFEBD502080F3118881
:1057A000BFF34F8FBFF36F8FFEE72A46F0E700236A
:1057B000324669463846FFF749FBFEBD80000020AF
:1057C00000000000000000000102030406070809B1
:1057D0000000000001020304F85700080000002048
:1057E000E4000000A8300008DC580008E4000020B5
:1057F0001C1B0000B8300008000000000000000082
:105800000000000000000000000000000000000098
:105810000000000000000000000000000000000088
:105820000000000000000000000000000100000077
:1058300010000000000000000024F4000000000040
:105840000000000000000000000000000000000058
:105850000000000000000000000000000000000048
:105860000000000000000000000000000000000038
:105870000000000000000000000000000000000028
:105880000000000000000000000000000000000018
:105890000000000000000000000000000000000008
:1058A0000000000000000000AAAAAAAA0000000050
:1058B00000000000000000000000000000000000E8
:1058C00000000000000000000000000000000000D8
:0C58D000000000000000000000000000CC
:04000005080000ED02
:00000001FF
